:100000000C94B4010C94D1010C9405020C94D10110
:100010000C94D1010C94D1010C94D1010C94D10118
:100020000C94D1010C94D1010C94D1010C94D10108
:100030000C94D1010C94D1010C9489050C94D1013C
:100040000C94D1010C94D1010C94D1010C94D101E8
:100050000C94D1010C94D1010C94D1010C94D101D8
:100060000C94D1010C94D1010C94D1010C94D101C8
:10007000000000000000000000065F5F06000000B6
:100080000007070007070000147F7F147F7F14001C
:10009000242E6B6B3A120000466630180C66620024
:1000A000307A4F5D377A48000407030000000000F3
:1000B000001C3E63410000000041633E1C00000044
:1000C000082A3E1C1C3E2A0808083E3E080800007C
:1000D00000A0E06000000000080808080808000010
:1000E00000006060000000006030180C0603010092
:1000F0003E7F594D7F3E000042427F7F40400000DE
:10010000627359496F660000226349497F360000D7
:10011000181C16137F7F1000276745457D390000A6
:100120003C7E4B4979300000036371190F070000D2
:10013000367F49497F360000064F49693F1E00005F
:1001400000006C6C0000000000A0EC6C00000000DF
:10015000081C366341000000141414141414000029
:10016000004163361C080000020351590F060000CD
:100170003E7F415D5D1F1E007C7E13137E7C000070
:10018000417F7F49497F36001C3E63414163220025
:10019000417F7F41637F1C00417F7F495D41630058
:1001A000417F7F491D0103001C3E63415173720072
:1001B0007F7F08087F7F000000417F7F41000000B3
:1001C000307040417F3F0100417F7F081C77630012
:1001D000417F7F41406070007F7F060C067F7F007B
:1001E0007F7F060C187F7F001C3E6341633E1C002E
:1001F000417F7F49090F06001E3F21717F5E00008D
:10020000417F7F19396F460026674D597B320000C8
:1002100003417F7F410300007F7F40407F7F0000DC
:100220001F3F60603F1F00007F7F3018307F7F00DE
:1002300063771C081C776300074F78784F0700002E
:100240006773594D47637100007F7F414100000093
:100250000103060C183060000041417F7F00000060
:10026000080C0603060C0800808080808080808057
:100270000000030704000000207454543C78400040
:10028000413F7F44447C3800387C44446C28000063
:10029000307848493F7F4000387C54545C18000057
:1002A000487E7F490302000098BCA4A4F87C0400A7
:1002B000417F7F08047C780000447D7D4000000081
:1002C00040C484FD7D000000417F7F10386C4400F5
:1002D00000417F7F400000007C7C0C180C7C780083
:1002E0007C7C04047C780000387C44447C3800002A
:1002F00084FCF8A4243C1800183C24A4F8FC8400D6
:10030000447C78441C180000485C54547424000059
:1003100000043E7F442400003C7C40403C7C400084
:100320001C3C60603C1C00003C7C6030607C3C00FD
:10033000446C3810386C44009CBCA0A0FC7C0000CD
:100340004C64745C4C64000008083E774141000036
:1003500000000077770000004141773E0808000068
:10036000020301030203010011241FBECFEFD4E0FA
:10037000DEBFCDBF11E0A0E0B1E0ECEEF6E202C0DE
:1003800005900D92AA3BB107D9F721E0AAEBB1E0A5
:1003900001C01D92A43CB207E1F70E9445020C94F3
:1003A00074130C9400008B98939A85B7886085BF6E
:1003B00085B78B7F85BF80E88BBF78940895CF93F6
:1003C000DF93CDB7DEB72A970FB6F894DEBF0FBE26
:1003D000CDBFCE0101960E94BC028981813061F4BB
:1003E0000E947703198293E09A836B837C838D83C9
:1003F000CE0101960E9489022A960FB6F894DEBFBC
:100400000FBECDBFDF91CF9108951F920F920FB60F
:100410000F9211242F933F934F935F936F937F938A
:100420008F939F93AF93BF93EF93FF930E94DF014E
:10043000FF91EF91BF91AF919F918F917F916F91BC
:100440005F914F913F912F910F900FBE0F901F9092
:10045000189580EB87BB81E58DB908958FB9779B9F
:10046000FECF8FB108950E942E0208958CEC0E9459
:100470002E020895C49A0895C498089580B78062A2
:1004800080BF85B7806885BF089580E895E20E94A7
:10049000B0060E943E020E9423050E94D3010E94E2
:1004A000700282E191E09F938F930E946C100F90F5
:1004B0000F900E943D0BFDCF83709078992324F418
:1004C00001978C6F9F6F01968C5F8093001485EF6E
:1004D00090E00197F1F700C00000809100140895AA
:1004E0000E94B8040E949E0440E060EE8FE00E94EB
:1004F00009054FEF63E08BE20E9409058EE00E9440
:10050000A604282F207E81E090E011F480E090E0A6
:1005100008951F93CF93DF93EC0148814295440FD8
:10052000407E60EE82E30E9409054881469546952B
:1005300046956FEF81E30E940905698185E30E947A
:10054000D404698185E30E94D4048981882369F0F9
:1005500010E0FE01E10FF11D628186E3810F0E9430
:10056000D4041F5F89811817A0F380E00E94E8047B
:10057000DF91CF911F9108951F93CF93DF93EC01EB
:100580008CE20E94A60480FF2CC085E60E94A6048F
:10059000898382E60E94A604182F1295169517707B
:1005A000188381E60E94A604880F880F880F180F11
:1005B00018838981882369F010E086E6810F0E9404
:1005C000A604FE01E10FF11D82831F5F89811817C8
:1005D000A0F340E061E08CE20E94090580E090E039
:1005E00002C081E090E0DF91CF911F9108950F93B9
:1005F0001F93CF93DF9380E090E00E945C028C0118
:1006000081E090E00E945C02EC0144E6409FC00162
:10061000419F900D1124EFEFF0E0BF010E94330ED7
:100620008B014C9FC0014D9F900D1124BF010E9472
:10063000330E9B01C901B801DF91CF911F910F913A
:100640000895CF92DF92EF92FF920F931F93CF9373
:10065000DF938C01EB01BC01882777FD8095982FF3
:100660000E941C0D6B017C01E894F7F820E030E05B
:1006700048E452E4C701B6010E947D0C882384F44B
:10068000BE01882777FD8095982F0E941C0D9F77CB
:1006900020E030E048E452E40E947D0C8823DCF046
:1006A000BE01882777FD8095982F0E941C0D9B0125
:1006B000AC015F77C701B6010E947D0C88232CF442
:1006C0001C161D0654F482E009C081E010161106C4
:1006D0002CF080E003C084E001C083E0DF91CF9183
:1006E0001F910F91FF90EF90DF90CF900895CF92E0
:1006F000DF92EF92FF92CF9382E090E00E945C0243
:10070000C0900A01D0900B01E0900C01F0900D0117
:10071000BC01882777FD8095982F0E941C0DA701AA
:1007200096010E94180C20E030E048EC52E40E9450
:10073000D00DA70196010E94810C0E94E90CC62FE2
:1007400083E090E00E945C02C0900E01D0900F0107
:10075000E0901001F0901101BC01882777FD809591
:10076000982F0E941C0DA70196010E94180C20E0F2
:1007700030E048EC52E40E94D00DA70196010E949F
:10078000810C0E94E90CF62E6C2F772767FD70957F
:100790008F2D992787FD90950E9421036F2D7C2F27
:1007A000CF91FF90EF90DF90CF900895CF93DF939C
:1007B0001F92CDB7DEB728EE33E0A901481B590BD5
:1007C000CA0168EC70E00E94330E605D698380E0CE
:1007D00090E00E94510640E050E069E171E080E065
:1007E00090E00E94B10542E050E067E271E080E0F5
:1007F00090E00E94B10520E630E042E050E0BE010A
:100800006F5F7F4F80E090E00E94FF0580E090E006
:100810000E9451050F90DF91CF910895BF92CF9222
:10082000DF92EF92FF920F931F93CF93DF93E12C10
:10083000F12C1FE70FE7CFE7DFE70F2EF8ECCF2E05
:10084000D12CF02D82E090E00E945C02B82E83E073
:1008500090E00E945C02BC1608F4CB2D811708F4CE
:10086000182F081708F4082FDB1508F4DB2D8FEF7D
:1008700097E10197F1F700C00000C701B6010E949F
:10088000330E892B19F4C7010E94D6039FEFE91A92
:10089000F90A88EEE81683E0F806A1F66D2F70E0FD
:1008A0006C1B7109882777FD8095982F0E941C0D7D
:1008B00020E030E040E05FE30E94D00D60930A0149
:1008C00070930B0180930C0190930D01602F70E0E9
:1008D000611B7109882777FD8095982F0E941C0D58
:1008E00020E030E040E05FE30E94D00D60930E0115
:1008F00070930F0180931001909311011F920F9339
:100900001F921F931F92DF931F92CF9383E391E077
:100910009F938F930E946C108DB79EB70A960FB667
:10092000F8949EBF0FBE8DBFDF91CF911F910F91A5
:10093000FF90EF90DF90CF90BF9008950E943C020F
:1009400080EC0E942E020E943A020895CF93C82F95
:100950000E943C0283E00E9433028C2F0E943302EB
:100960000E943602C82F0E943A028C2FCF91089520
:1009700080E895E20E94B0060E9429020E949E042F
:100980008EE00E94A604807E803859F08FE391E0CB
:100990009F938F930E946C100F900F9081E090E0D6
:1009A000089580E090E00895CF93DF93D82FC62F6D
:1009B0000E943C0282E00E9433028D2F0E9433028B
:1009C0008C2F0E9433020E943A02DF91CF9108954A
:1009D000CF93C82F0E943C028C2F8370813051F03E
:1009E00028F0823059F0833069F00FC081E80E940E
:1009F00033020BC082E80E94330207C084E80E94E1
:100A0000330203C087E80E9433020E943A02CF916A
:100A100008951F93CF93DF93182FD62FC42F0E94D2
:100A20003C0285E00E943302812F0E9433028D2F09
:100A30000E9433028C2F0E9433020E943A02DF91FF
:100A4000CF911F910895E0E0F0E18EEA808381EA82
:100A500080838AED808382E1808388EC808388EACA
:100A600080838FE3808385ED808380E8808381E8C5
:100A7000808380E5808389ED808381E2808380E2CA
:100A8000808382E080838BED808380E380838DEAA6
:100A90008083108284EA808386EA80838FEA808361
:100AA0000895AF92BF92CF92DF92EF92FF920F9391
:100AB0001F93CF93DF935C01C0E0D0E0E12CF12CD9
:100AC000C12C6894DD24D4F800E012E1CE019E012F
:100AD0002F773327232B39F420EB2E0DF6012083BB
:100AE000FFEFEF1AFF0A8A0D9B1D0E94A106F80175
:100AF00080832196C115F4E0DF0741F7DF91CF91A4
:100B00001F910F91FF90EF90DF90CF90BF90AF902B
:100B100008951F920F920FB60F9211242F933F93B7
:100B20004F935F936F937F938F939F93AF93BF93F5
:100B3000EF93FF9380E090E00E9451051DBC1CBC28
:100B4000FF91EF91BF91AF919F918F917F916F91A5
:100B50005F914F913F912F910F900FBE0F901F907B
:100B60001895AF92BF92CF92DF92EF92FF920F93C0
:100B70001F93CF93DF936A01D694DC2CCC24D794B7
:100B8000C794C80ED91EFB01E080EE2069F15B011D
:100B9000FFEFAF1ABF0A15C0CE01F701E80FF91F2A
:100BA0006491EC01219670E00E94A506C017D10760
:100BB00099F748E0C40ED11CF501E1905F01EE20E9
:100BC00099F08601085F1F4FF12CEE0CFF1CEE0C14
:100BD000FF1CEE0CFF1C97012C193D09C601A90151
:100BE000405950407A01D9CFDF91CF911F910F9199
:100BF000FF90EF90DF90CF90BF90AF900895EF926D
:100C0000FF920F931F93CF93DF937B018A01169579
:100C1000102F002717950795800F911F8C01020F49
:100C2000131FC0E0D0E0D701EC91F0E0B097EE0FD9
:100C3000FF1FEE0FFF1FEE0FFF1FEC0FFD1FE05910
:100C4000FF4F649170E0CE01800F911F0E94A506B6
:100C50002196C830D10539F7DF91CF911F910F91BF
:100C6000FF90EF9008950F931F93CF93DF938B0125
:100C70001695102F002717950795080F191FC0E02C
:100C8000D0E060E070E0CE01800F911F0E94A506C9
:100C90002196C038D105A9F7DF91CF911F910F910F
:100CA00008950F931F93CF93DF938C01C0E0D0E0A2
:100CB000BE01C8010E9433062196C830D105C1F794
:100CC000DF91CF911F910F9108950F931F93CF93B1
:100CD000DF93EA019A01DD2314F4295F3F4F890174
:100CE0001595079515950795159507951695102F48
:100CF000002717950795080F191F060F171FC80122
:100D00000E94A106AE0147705078552334F441503B
:100D10005109486F5F6F4F5F5F4F21E030E0B901CD
:100D200002C0660F771F4A95E2F7AB01482B642F8C
:100D300070E0C8010E94A506DF91CF911F910F912D
:100D40000895985EFC0180810895FC01F85E808121
:100D5000608308955D9BFECF8CB980E090E008959C
:100D60009C0140E050E060E070EB84E090E00E9485
:100D7000470E2150310930BD29B98AB188618AB93D
:100D800080B5866880BD60E070E08AEA96E00E94E7
:100D9000211080E090E0089580E090E00E945106EC
:100DA0000FE110E0CFE3D0E00E947703813071F0D3
:100DB00058F0823019F0833021F009C00150110938
:100DC00006C00F5F1F4F03C0219701C02196A801E5
:100DD000BE0180E090E00E94650680E090E00E9405
:100DE00051052FEF8FE791E0215080409040E1F7CF
:100DF00000C000C0D9CFCF92DF92EF92FF92CF9385
:100E0000DF93EB01FC01C280D380E480F58088276A
:100E100077FD8095982F0E941C0D9B01AC01C701A6
:100E2000B6010E94CC0D8823BCF0BE01605F7F4FED
:100E3000882777FD8095982F0E941C0D9B01AC019F
:100E4000D1E0C0E0C701B6010E947D0C88230CF000
:100E5000D0E08D2F9C2F02C080E090E0DF91CF91F9
:100E6000FF90EF90DF90CF900895CF92DF92EF92B6
:100E7000FF920F931F93CF93DF93EC018B016E8151
:100E80007F81882777FD8095982F0E941C0D6B012C
:100E90007C01B801882777FD8095982F0E941C0D52
:100EA0009B01AC016A817B818C819D810E94180C21
:100EB00020E030E040E051E40E94180C20E030E0F7
:100EC00040E05EE30E94D00D20E030E044E352E4D5
:100ED0000E94D00D9B01AC01C701B6010E94190C04
:100EE0000E94E90C6E3271052CF08DE290E09F8338
:100EF0008E830BC0633D4FEF74072CF48DE290E0BE
:100F00009F838E8302C07F836E83DF91CF911F9179
:100F10000F91FF90EF90DF90CF900895CF93DF93E4
:100F2000EC010E94111081709078992324F40197AC
:100F30008E6F9F6F0196998788870E9411106BE5CD
:100F400070E00E94330E8D979F838E83DF91CF9147
:100F50000895CF92DF92EF92FF920F931F93CF935A
:100F6000DF93CDB7DEB72A970FB6F894DEBF0FBE7A
:100F7000CDBF09831A832B833C834D835E8380E03E
:100F800090E00E94510600E010E0A8014E0D5F1DA8
:100F900060E070E080E090E00E946506A8014C0DE2
:100FA0005D1D6EE770E080E090E00E9465060F5FD7
:100FB0001F4F0031110549F76B817C818D819E8126
:100FC0000E94E90C29813A81AB01B90180E090E0EF
:100FD0000E94650680E090E00E9451052A960FB6B7
:100FE000F894DEBF0FBECDBFDF91CF911F910F915F
:100FF000FF90EF90DF90CF9008956F927F928F9245
:101000009F92AF92BF92CF92DF92EF92FF920F9397
:101010001F93CF93DF93CDB7DEB72A970FB6F8941F
:10102000DEBF0FBECDBFCE0101960E948E076624A3
:101030006394712C0E94F7024B015C0189819A81B3
:101040008F3791057CF0B501CE0101960E94FB0619
:10105000009791F11A861986B501CE0101960E947A
:10106000350710C0892B71F4B401CE0101960E949E
:10107000FB06892BF9F07A866986B401CE010196C8
:101080000E9435076501740109811A812B813C8119
:101090004D815E816F81788589859A850E94A90737
:1010A0002FEF8FEF92E0215080409040E1F700C099
:1010B00000C0C0CF81E090E02A960FB6F894DEBF62
:1010C0000FBECDBFDF91CF911F910F91FF90EF9099
:1010D000DF90CF90BF90AF909F908F907F906F9058
:1010E000089580E090E00E9451060E94FD07FDCF28
:1010F000FC01009781F0848195818617970729F478
:10110000868197818417950749F00190F081E02D41
:10111000309789F706C080E090E0089581E090E084
:10112000089580E090E008950F931F93CF93DF938D
:10113000EC018B010E9411108F739078992324F495
:101140000197806C9F6F0196998388830E9411108C
:10115000AC014F715078552334F441505109406E21
:101160005F6F4F5F5F4F5B834A8368817981C801FE
:101170000E947808892BF1F6DF91CF911F910F9192
:101180000895CF92DF92EF92FF920F931F93CF9328
:10119000DF938C017B0180E090E00E9451060115F5
:1011A000110509F459C0C12CD12C2AC0F80146817F
:1011B0005781440F551F64817581660F771F6C0F2F
:1011C0007D1F8C2D9D2D0E946506F801468157815B
:1011D000440F551F4F5F5F4F64817581660F771F06
:1011E0006C0F7D1F8C2D9D2D0E9465062196C230AF
:1011F000D105E1F6F801008111810115110561F1B8
:10120000CC2DDD2DD3CFF70142815381440F551FE3
:1012100060817181660F771F6C0F7D1F80E090E009
:101220000E946506F70142815381440F551F4F5FAD
:101230005F4F60817181660F771F6C0F7D1F80E0AB
:1012400090E00E9465062196C230D105E1F680E06B
:1012500090E00E94510503C0C0E0D0E0D4CFDF9100
:10126000CF911F910F91FF90EF90DF90CF90089555
:10127000AF92BF92CF92DF92EF92FF920F931F93A4
:10128000CF93DF9300D000D0CDB7DEB788E090E0F9
:101290000E949C0E6C0180E290E0F60195838483AD
:1012A00080E190E0978386831182108213821282FC
:1012B00086016894AA24A2F8B12C88E090E00E94EC
:1012C0009C0E7C01F801848195810196F70195833C
:1012D0008483F80186819781F70197838683118340
:1012E000008313821282F801F382E282F1E0AF1AE6
:1012F000B108A114B10411F08701DFCFB701CE010D
:1013000001960E94940880E090E00E945106AA2471
:10131000A39470C00E947703B82E24E0821301C00A
:10132000BA2C88E090E00E949C0E8C01F701248189
:101330003581FC0135832483F70126813781FC0147
:1013400037832683F182E08213821282F70193832E
:101350008283F1E0BF16F1F0BF16A8F022E0B216CA
:1013600021F083E0B81641F01BC0FC018681978113
:1013700001979783868314C0F8018681978101962F
:10138000978386830DC0FC018481958101979583A5
:10139000848306C0FC0184819581019695838483B2
:1013A0004B815C8169817A81C8010E947808892B10
:1013B00031F0B801CE0101960E9494080AC0F601EE
:1013C000E280F380F70111821082C6010E94340F7F
:1013D0006701BE016F5F7F4FC8010E94C108FFEF28
:1013E0002FE781E0F15020408040E1F700C000C0CD
:1013F000AB2C7801F701468157816481758180812A
:1014000091810E947808892B09F484CF0F900F9066
:101410000F900F90DF91CF911F910F91FF90EF9060
:10142000DF90CF90BF90AF9008952F923F924F9250
:101430005F926F927F928F929F92AF92BF92CF9264
:10144000DF92EF92FF920F931F93CF93DF9300D021
:101450001F92CDB7DEB77C0180E090E00E9451067C
:10146000D7016D917C9140E050E080E090E00E94D7
:10147000B105F70184899589181619060CF06DC01D
:10148000C70104969B838A83CC24C394D12C68948F
:10149000222423F8312CAA81BB816D907D90BB83DF
:1014A000AA83D301ED91FC9180818983F70140AD3E
:1014B00051ADC60101974817590759F44F5F5F4F67
:1014C00020E030E063E771E080E090E00E94FF05FB
:1014D00009C020E030E0A60161E371E080E090E027
:1014E0000E94FF058981882359F16894AA24A3F8F2
:1014F000B12C88248394912C1EC0242D352DA60157
:10150000BE016F5F7F4F80E090E00E94FF050150B9
:1015100011090115110589F7D301ED91FC91E80D31
:10152000F91D80818983BFEF8B1A9B0AE8E0AE0E1C
:10153000B11C882329F04A2C5B2C022D132DDDCF02
:10154000C601FFEFCF1ADF0AD70154962D913C91C7
:101550005597821793070CF49ECFF70186A997A998
:10156000181619060CF06FC03701F6E16F0E711CEA
:10157000C12CD12C6894442443F8512CD3018D9074
:101580009D903D01F40180818983D701D8968D918A
:101590009C91D99754964D915C9155974C0D5D1D3A
:1015A0008417950761F4AC014F5F5F4F20E030E096
:1015B00063E771E080E090E00E94FF050AC04F5FA2
:1015C0005F4F20E030E061E371E080E090E00E9456
:1015D000FF058981882359F1BFEF8B1A9B0A689414
:1015E000AA24A3F8B12C1EC0F701448955894C0DDB
:1015F0005D1D4F5F5F4F222D332DBE016F5F7F4F0B
:1016000080E090E00E94FF050150110901151105CD
:1016100059F7D4018D914D018983B8E0AB0EB11C0F
:10162000882329F02A2C3B2C042D152DDDCFEFEF3C
:10163000CE1ADE0AD701D6968D919C91D797C816FF
:10164000D9060CF49BCF80E090E00E9451050F90EA
:101650000F900F90DF91CF911F910F91FF90EF901E
:10166000DF90CF90BF90AF909F908F907F906F90C2
:101670005F904F903F902F900895CF93DF93CDB719
:10168000DEB7C85ED1090FB6F894DEBF0FBECDBF7E
:101690004AE38E010F5F1F4FD801E42F1D92EA9598
:1016A000E9F785E791E09A83898383E090E09E8B58
:1016B0008D8BDE01DB96FD01242F11922A95E9F72F
:1016C0002FE731E03CAF2BAF1EAF0DAFB887AF8334
:1016D000FE01EB58FF4FDF01242F1D922A95E9F7F9
:1016E00029E831E0318320831383028397AB86ABF3
:1016F0008CEC96E097A386A388E399E091A780A756
:1017000081E798E093A782A783E991E0978B868B86
:1017100088E991E0918F808F8EE991E0938F828F9D
:10172000FE83ED83FA96DF011D924A95E9F783EA7D
:1017300091E0918380831383028381E090E097ABF3
:1017400086AB8EE094E097A386A38CEA91E0978B1A
:10175000868BFA87E9876894AA24A2F8F801C6A8BC
:10176000D7A8E488F5880E947703B82EA81609F454
:1017700051C0B6016E0D7F1DF1E08F1769F18F1713
:1017800008F122E0821721F083E0B81679F042C018
:10179000D801D8968D919C91D9970197860F971F64
:1017A0000E94330EF80191AF80AF34C0D801D896B3
:1017B0008D919C91D99701960E94330EF80191AFBB
:1017C00080AF28C0D80112962D913C911397211516
:1017D000310501F189011EC0F80120AD31AD448908
:1017E0005589241735074CF42E5F3F4F220F331FC6
:1017F000E20FF31F008111810DC0241B350B2D5EFC
:101800003F4FF901EE0FFF1FE00FF11F0190F08134
:10181000E02D0995C8010E94150AFFEF2FE781E02E
:10182000F15020408040E1F700C000C0AB2C96CFC3
:101830005058BB27AA270ED075C166D130F06BD1A6
:1018400020F031F49F3F11F41EF45BC10EF4E095DB
:10185000E7FB51C1E92F77D180F3BA17620773070D
:101860008407950718F071F49EF58FC10EF4E0958A
:101870000B2EBA2FA02D0B01B90190010C01CA014A
:10188000A0011124FF27591B99F0593F50F4503EF5
:1018900068F11A16F040A22F232F342F4427585FE7
:1018A000F3CF469537952795A795F0405395C9F7FF
:1018B0007EF41F16BA0B620B730B840BBAF09150B7
:1018C000A1F0FF0FBB1F661F771F881FC2F70EC056
:1018D000BA0F621F731F841F48F487957795679529
:1018E000B795F7959E3F08F0B3CF9395880F08F012
:1018F0009927EE0F979587950895D9D008F481E040
:1019000008950CD00FC107D140F0FED030F021F483
:101910005F3F19F0F0C0511139C1F3C014D198F3F1
:101920009923C9F35523B1F3951B550BBB27AA2760
:1019300062177307840738F09F5F5F4F220F331FD2
:10194000441FAA1FA9F333D00E2E3AF0E0E830D09E
:1019500091505040E695001CCAF729D0FE2F27D0A1
:10196000660F771F881FBB1F261737074807AB076F
:10197000B0E809F0BB0B802DBF01FF2793585F4FE4
:101980002AF09E3F510568F0B6C000C15F3FECF3FE
:10199000983EDCF3869577956795B795F7959F5FA9
:1019A000C9F7880F911D9695879597F90895E1E0FD
:1019B000660F771F881FBB1F621773078407BA075C
:1019C00020F0621B730B840BBA0BEE1F88F7E095B7
:1019D000089504D06894B111D9C00895BCD088F09E
:1019E0009F5790F0B92F9927B751A0F0D1F0660F0B
:1019F000771F881F991F1AF0BA95C9F712C0B13026
:101A000081F0C3D0B1E00895C0C0672F782F882738
:101A1000B85F39F0B93FCCF3869577956795B39564
:101A2000D9F73EF490958095709561957F4F8F4FD3
:101A30009F4F0895E89409C097FB3EF490958095D8
:101A4000709561957F4F8F4F9F4F9923A9F0F92F84
:101A500096E9BB279395F695879577956795B79502
:101A6000F111F8CFFAF4BB0F11F460FF1BC06F5FE8
:101A70007F4F8F4F9F4F16C0882311F096E911C0FA
:101A8000772321F09EE8872F762F05C0662371F01B
:101A900096E8862F70E060E02AF09A95660F771F2F
:101AA000881FDAF7880F9695879597F90895990F0B
:101AB0000008550FAA0BE0E8FEEF16161706E80718
:101AC000F907C0F012161306E407F50798F0621B39
:101AD000730B840B950B39F40A2661F0232B242B0E
:101AE000252B21F408950A2609F4A140A6958FEF2D
:101AF000811D811D089597F99F6780E870E060E07F
:101B000008959FEF80EC089500240A941616170696
:101B100018060906089500240A94121613061406DE
:101B200005060895092E0394000C11F4882352F041
:101B3000BB0F40F4BF2B11F460FF04C06F5F7F4FF9
:101B40008F4F9F4F089557FD9058440F551F59F0E0
:101B50005F3F71F04795880F97FB991F61F09F3F9A
:101B600079F087950895121613061406551FF2CFC3
:101B70004695F1DF08C0161617061806991FF1CF13
:101B800086957105610508940895E894BB2766273A
:101B90007727CB0197F908958ADF08F48FEF08952E
:101BA0000BD0C0CFB1DF28F0B6DF18F0952309F0D5
:101BB000A2CFA7CF1124EACFC6DFA0F3959FD1F320
:101BC000950F50E0551F629FF001729FBB27F00DEB
:101BD000B11D639FAA27F00DB11DAA1F649F662740
:101BE000B00DA11D661F829F2227B00DA11D621F8F
:101BF000739FB00DA11D621F839FA00D611D221F49
:101C0000749F3327A00D611D231F849F600D211D2C
:101C1000822F762F6A2F11249F5750408AF0E1F0CF
:101C200088234AF0EE0FFF1FBB1F661F771F881F18
:101C300091505040A9F79E3F510570F05CCFA6CF60
:101C40005F3FECF3983EDCF3869577956795B79503
:101C5000F795E7959F5FC1F7FE2B880F911D96952D
:101C6000879597F9089597FB072E16F4009407D0EF
:101C700077FD09D00E94660E07FC05D03EF49095D2
:101C800081959F4F0895709561957F4F0895052E1A
:101C900097FB1EF400940E945E0E57FD07D00E9431
:101CA0007A0E07FC03D04EF40C945E0E50954095CE
:101CB000309521953F4F4F4F5F4F089590958095F8
:101CC000709561957F4F8F4F9F4F0895AA1BBB1B47
:101CD00051E107C0AA1FBB1FA617B70710F0A61B2C
:101CE000B70B881F991F5A95A9F780959095BC014D
:101CF000CD010895A1E21A2EAA1BBB1BFD010DC048
:101D0000AA1FBB1FEE1FFF1FA217B307E407F507AB
:101D100020F0A21BB30BE40BF50B661F771F881F87
:101D2000991F1A9469F760957095809590959B011D
:101D3000AC01BD01CF010895CF93DF9382309105AF
:101D400010F482E090E0E091BC01F091BD0120E050
:101D500030E0A0E0B0E0309739F140815181481780
:101D60005907B8F04817590771F482819381109789
:101D700029F013969C938E9312972CC09093BD01DB
:101D80008093BC0127C02115310531F0421753075C
:101D900018F0A901DB0101C0EF019A01BD01DF01CB
:101DA0000280F381E02DD7CF21153105F9F0281BF2
:101DB000390B2430310580F48A819B8161157105CE
:101DC00021F0FB019383828304C09093BD01809333
:101DD000BC01FE01329644C0FE01E20FF31F819365
:101DE000919322503109398328833AC02091BA0156
:101DF0003091BB01232B41F420910201309103016A
:101E00003093BB012093BA01209100013091010170
:101E10002115310541F42DB73EB740910401509191
:101E20000501241B350BE091BA01F091BB01E217CB
:101E3000F307A0F42E1B3F0B2817390778F0AC01ED
:101E40004E5F5F4F2417350748F04E0F5F1F5093CA
:101E5000BB014093BA018193919302C0E0E0F0E0AE
:101E6000CF01DF91CF910895CF93DF93009709F4CD
:101E700087C0FC01329713821282C091BC01D091BD
:101E8000BD01209781F420813181280F391F809175
:101E9000BA019091BB018217930779F5F093BB01CA
:101EA000E093BA016DC0DE0120E030E0AE17BF075D
:101EB00050F412964D915C9113979D014115510577
:101EC00009F1DA01F3CFB383A28340815181840FFA
:101ED000951F8A179B0771F48D919C911197840F20
:101EE000951F02969183808312968D919C911397F2
:101EF000938382832115310529F4F093BD01E0938A
:101F0000BC013EC0D9011396FC93EE9312974D91FC
:101F10005D91A40FB51FEA17FB0779F480819181C9
:101F2000840F951F0296D90111969C938E938281FE
:101F3000938113969C938E931297E0E0F0E08A8150
:101F40009B81009719F0FE01EC01F9CFCE010296BA
:101F500028813981820F931F2091BA013091BB01F2
:101F60002817390769F4309729F41092BD011092AF
:101F7000BC0102C013821282D093BB01C093BA018C
:101F8000DF91CF9108958F929F92AF92BF92CF929F
:101F9000DF92EF92FF92CF93DF93EC01688179811A
:101FA0008A819B81611571058105910521F464E2A7
:101FB00079ED8BE597E02DE133EF41E050E00E94B1
:101FC000470E49015A019B01AC01A7EAB1E40E9406
:101FD0001B136B017C01ACEEB4EFA50194010E94D0
:101FE0002913C60ED71EE81EF91EF7FE06C081E0B3
:101FF000C81AD108E10880E8F80AC882D982EA82C2
:10200000FB82C6019F77DF91CF91FF90EF90DF9029
:10201000CF90BF90AF909F908F9008950E94C30F74
:10202000089586E091E00E94C30F0895A0E0B0E01B
:102030008093060190930701A0930801B0930901D2
:1020400008950F931F93CF93DF93EC018B010097BB
:1020500031F46115710519F480E090E038C06EE04C
:1020600070E081E090E00E945212FC010097A1F321
:1020700080E883830115110571F01387028781E8D9
:1020800083838091BE019091BF01892B21F4F0934D
:10209000BF01E093BE012097C9F0D187C08783813B
:1020A000826083838091C0019091C101892B71F47A
:1020B000F093C101E093C0018091C2019091C301EE
:1020C000892B21F4F093C301E093C201CF01DF918A
:1020D000CF911F910F910895A0E0B0E0E2E7F0E109
:1020E0000C943E13FE01359661917191AF01809180
:1020F000C0019091C1010E948010E2E00C945A133B
:10210000ACE0B0E0E6E8F0E10C942E137C016B014A
:102110008A01FC0117821682838181FFBDC1CE0135
:1021200001964C01F7019381F60193FD859193FF90
:1021300081916F01882309F4ABC1853239F493FD95
:10214000859193FF81916F01853229F4B70190E069
:102150000E948B12E7CF512C312C20E02032A0F4CA
:102160008B3269F030F4803259F0833269F42061A7
:102170002CC08D3239F0803339F4216026C02260C2
:10218000246023C0286021C027FD27C030ED380F10
:102190003A3078F426FF06C0FAE05F9E300D112435
:1021A000532E13C08AE0389E300D1124332E206246
:1021B0000CC08E3221F426FD6BC1206406C08C3623
:1021C00011F4206802C0883641F4F60193FD859130
:1021D00093FF81916F018111C1CF982F9F7D9554FD
:1021E000933028F40C5F1F4FFFE3F9830DC0833653
:1021F00031F0833771F0833509F05BC022C0F801FC
:10220000808189830E5F1F4F44244394512C5401D5
:1022100015C03801F2E06F0E711CF801A080B1808A
:1022200026FF03C0652D70E002C06FEF7FEFC50190
:102230002C870E9480122C0183012C852F77222E5F
:1022400017C03801F2E06F0E711CF801A080B18058
:1022500026FF03C0652D70E002C06FEF7FEFC50160
:102260002C870E946E122C012C852068222E83015F
:1022700023FC1BC0832D90E048165906B0F4B7012B
:1022800080E290E00E948B123A94F4CFF50127FC93
:10229000859127FE81915F01B70190E00E948B122A
:1022A00031103A94F1E04F1A51084114510471F77A
:1022B000E5C0843611F0893639F5F80127FF07C0EB
:1022C00060817181828193810C5F1F4F08C06081A2
:1022D0007181882777FD8095982F0E5F1F4F2F768D
:1022E000B22E97FF09C090958095709561957F4FAC
:1022F0008F4F9F4F2068B22E2AE030E0A4010E9449
:10230000BD12A82EA81844C0853729F42F7EB22EFE
:102310002AE030E025C0F22FF97FBF2E8F36C1F0C2
:1023200018F4883579F0B4C0803719F0883721F077
:10233000AFC02F2F2061B22EB4FE0DC08B2D846054
:10234000B82E09C024FF0AC09F2F9660B92E06C080
:1023500028E030E005C020E130E002C020E132E0BA
:10236000F801B7FE07C060817181828193810C5FA3
:102370001F4F06C06081718180E090E00E5F1F4FAB
:10238000A4010E94BD12A82EA818FB2DFF77BF2E16
:10239000B6FE0BC02B2D2E7FA51450F4B4FE0AC040
:1023A000B2FC08C02B2D2E7E05C07A2C2B2D03C02D
:1023B0007A2C01C0752C24FF0DC0FE01EA0DF11D21
:1023C0008081803311F4297E09C022FF06C07394F6
:1023D000739404C0822F867809F0739423FD13C090
:1023E00020FF06C05A2C731418F4530C5718732C82
:1023F000731468F4B70180E290E02C870E948B127E
:1024000073942C85F5CF731410F4371801C0312C58
:1024100024FF12C0B70180E390E02C870E948B124A
:102420002C8522FF17C021FF03C088E590E002C081
:1024300088E790E0B7010CC0822F867859F021FD23
:1024400002C080E201C08BE227FD8DE2B70190E07F
:102450000E948B12A51438F4B70180E390E00E942B
:102460008B125A94F7CFAA94F401EA0DF11D8081E2
:10247000B70190E00E948B12A110F5CF332009F430
:1024800051CEB70180E290E00E948B123A94F6CFD1
:10249000F7018681978102C08FEF9FEF2C96E2E1D2
:1024A0000C944A130F931F93CF93DF93869F800161
:1024B000879F100D969F100D1124C8010E949C0E3D
:1024C000EC01009729F0A80160E070E00E94791209
:1024D000CE01DF91CF911F910F910895FC010590DE
:1024E000615070400110D8F7809590958E0F9F1F16
:1024F0000895DC0101C06D9341505040E0F708950C
:10250000FC016150704001900110D8F780959095C2
:102510008E0F9F1F08950F931F93CF93DF93182F54
:10252000092FEB018B8181FD03C08FEF9FEF20C04E
:1025300082FF10C04E815F812C813D81421753077D
:102540007CF4E881F9819F012F5F3F4F3983288315
:10255000108306C0E885F985812F0995892B29F715
:102560002E813F812F5F3F4F3F832E83812F902FFE
:10257000DF91CF911F910F910895FA01AA2728307A
:1025800051F1203181F1E8946F936E7F6E5F7F4F40
:102590008F4F9F4FAF4FB1E03ED0B4E03CD0670FBC
:1025A000781F891F9A1FA11D680F791F8A1F911D0F
:1025B000A11D6A0F711D811D911DA11D20D009F45F
:1025C00068943F912AE0269F11243019305D3193A1
:1025D000DEF6CF010895462F4770405D4193B3E08A
:1025E0000FD0C9F7F6CF462F4F70405D4A3318F031
:1025F000495D31FD4052419302D0A9F7EACFB4E0E2
:10260000A6959795879577956795BA95C9F7009799
:102610006105710508959B01AC010A2E069457953A
:10262000479537952795BA95C9F7620F731F841F91
:10263000951FA01D08950E946513A59F900DB49F3E
:10264000900DA49F800D911D11240895B7FF0C9447
:102650001B130E941B13821B930B08952F923F9212
:102660004F925F926F927F928F929F92AF92BF92A2
:10267000CF92DF92EF92FF920F931F93CF93DF934E
:10268000CDB7DEB7CA1BDB0B0FB6F894DEBF0FBEAB
:10269000CDBF09942A88398848885F846E847D84F8
:1026A0008C849B84AA84B984C884DF80EE80FD80FA
:1026B0000C811B81AA81B981CE0FD11D0FB6F89470
:1026C000DEBF0FBECDBFED010895A29FB001B39F45
:1026D000C001A39F700D811D1124911DB29F700D2B
:0C26E000811D1124911D0895F894FFCF76
:1026EC000000C4012000010000000000FE420000B8
:1026FC00FE4252657365743F004D6F7665204A6FDC
:10270C0079737469636B0054696D65206C656674CC
:10271C003A20002569202569202569202569004D6E
:10272C00435032353135206973204E4F5420696E39
:10273C0020636F6E66696775726174696F6E206D68
:10274C006F646520616674657220726573657421AF
:10275C000A0D003E004D61696E206D656E75004876
:10276C0069676873636F726500506C6179204761AB
:10277C006D65004472617700536E616B6500506F3C
:10278C006E670053657474696E67730043616C699E
:0A279C006272617465204A6F7900D3
:00000001FF
