:100000000C9438000C9455000C9455000C94550039
:100010000C9455000C9455000C9455000C9455000C
:100020000C9455000C9455000C9455000C945500FC
:100030000C9455000C9455000C9434020C9455000B
:100040000C9455000C9455000C9455000C945500DC
:100050000C9455000C9455000C9455000C945500CC
:100060000C9455000C9455000C9455000C945500BC
:1000700011241FBECFEFD4E0DEBFCDBF11E0A0E062
:10008000B1E0EEEBFEE002C005900D92A639B1079B
:10009000D9F721E0A6E9B1E001C01D92A03AB2076C
:1000A000E1F70E945E000C945D070C94000080B79D
:1000B000806280BF85B7806885BF0895CF93DF9346
:1000C000CDB7DEB764970FB6F894DEBF0FBECDBFD5
:1000D00080E895E20E947B020E9457000E94CE01B8
:1000E0000E94DB000F2EF1E65F2EF02D0F2EF6E0C2
:1000F0008F2EF1E09F2EF02D222423940F2EF5E673
:100100003F2EF02D0F2EF9E64F2EF02D5E012DE043
:10011000A20EB11C0F2EFFE0CF2EF1E0DF2EF02D4E
:10012000CE0101967C018E010D5F1F4F0F2EFAE26A
:100130006F2EF1E07F2EF02D53949F928F920E94AC
:100140004A042B865D863E864F8691E2988BE4E0DA
:10015000EC87CE010B960E94FC00BF92AF92DF921B
:10016000CF920E944A04F7012AE011922A95E9F7FA
:10017000C7010E941F010F900F900F900F900F90DA
:100180000F90892B21F08EE191E00E945E041F9375
:100190000F937F926F920E944A048FEF9FE7E6E1F0
:1001A00081509040E040E1F700C000C00F900F90F8
:1001B0000F900F90C1CF0E9463010E94490140E05F
:1001C00060EE8FE00E94B4014FEF63E08BE20E948B
:1001D000B4018EE00E945101807E59F088E391E0E5
:1001E0009F938F930E944A040F900F9081E090E0BC
:1001F000089580E090E008951F93CF93DF93EC0182
:10020000688182E30E947F01698185E30E947F010A
:100210008981882369F010E0FE01E10FF11D628100
:1002200086E3810F0E947F011F5F89811817A0F369
:1002300080E00E949301DF91CF911F9108951F9359
:10024000CF93DF93EC018CE20E94510180FF1BC031
:1002500085E60E9451018983882369F010E086E6D3
:10026000810F0E945101FE01E10FF11D82831F5F8A
:1002700089811817A0F340E061E08CE20E94B4018C
:1002800080E090E002C081E090E0DF91CF911F918B
:1002900008950E946F0280EC0E9461020E946D022C
:1002A0000895CF93C82F0E946F0283E00E946602D8
:1002B0008C2F0E9466020E946902C82F0E946D0264
:1002C0008C2FCF91089580E895E20E947B020E94D6
:1002D0005C020E9449018EE00E945101807E8038BC
:1002E00059F081E691E09F938F930E944A040F900A
:1002F0000F9081E090E0089580E090E00895CF9322
:10030000DF93D82FC62F0E946F0282E00E94660200
:100310008D2F0E9466028C2F0E9466020E946D0241
:10032000DF91CF910895CF93C82F0E946F028C2F39
:100330008370813051F028F0823059F0833069F0B9
:100340000FC081E80E9466020BC082E80E9466022C
:1003500007C084E80E94660203C087E80E94660224
:100360000E946D02CF9108951F93CF93DF93182FB2
:10037000D62FC42F0E946F0285E00E946602812F53
:100380000E9466028D2F0E9466028C2F0E946602D8
:100390000E946D02DF91CF911F910895E0E0F0E19E
:1003A0008EEA808381EA80838AED808382E1808384
:1003B00088EC808388EA80838FE3808385ED808367
:1003C00080E8808381E8808380E5808389ED808375
:1003D00081E2808380E2808382E080838BED808372
:1003E00080E380838DEA8083108284EA808386EABA
:1003F00080838FEA80830895AF92BF92CF92DF927D
:10040000EF92FF920F931F93CF93DF935C01C0E0B5
:10041000D0E0E12CF12CC12C6894DD24D4F800E06C
:1004200012E1CE019E012F773327232B39F420EBE5
:100430002E0DF6012083FFEFEF1AFF0A8A0D9B1D98
:100440000E947102F80180832196C115F4E0DF0754
:1004500041F7DF91CF911F910F91FF90EF90DF90C7
:10046000CF90BF90AF9008951F920F920FB60F924A
:1004700011242F933F934F935F936F937F938F93A9
:100480009F93AF93BF93EF93FF9380E090E00E9420
:10049000FC011DBC1CBCFF91EF91BF91AF919F91DE
:1004A0008F917F916F915F914F913F912F910F901D
:1004B0000FBE0F901F90189580EB87BB81E58DB91B
:1004C00008958FB9779BFECF8FB108950E94610286
:1004D00008958CEC0E9461020895C49A0895C4980E
:1004E0000895985EFC01808108955D9BFECF8CB9D4
:1004F00080E090E008959C0140E050E060E070EB07
:1005000084E090E00E9497022150310930BD29B962
:100510008AB188618AB980B5866880BD60E070E084
:1005200085E792E00E94FF0380E090E00895052EA9
:1005300097FB1EF400940E94AE0257FD07D00E9464
:10054000B60207FC03D04EF40C94AE0250954095D1
:10055000309521953F4F4F4F5F4F0895909580956F
:10056000709561957F4F8F4F9F4F0895A1E21A2E8E
:10057000AA1BBB1BFD010DC0AA1FBB1FEE1FFF1F47
:10058000A217B307E407F50720F0A21BB30BE40B97
:10059000F50B661F771F881F991F1A9469F76095DE
:1005A0007095809590959B01AC01BD01CF01089598
:1005B000CF93DF938230910510F482E090E0E091D8
:1005C0009801F091990120E030E0A0E0B0E0309790
:1005D00039F14081518148175907B8F04817590738
:1005E00071F482819381109729F013969C938E93D6
:1005F00012972CC0909399018093980127C02115E0
:10060000310531F04217530718F0A901DB0101C091
:10061000EF019A01BD01DF010280F381E02DD7CF08
:1006200021153105F9F0281B390B2430310580F4F0
:100630008A819B816115710521F0FB01938382837F
:1006400004C09093990180939801FE01329644C0B2
:10065000FE01E20FF31F81939193225031093983F8
:1006600028833AC02091960130919701232B41F4C1
:10067000209102013091030130939701209396015C
:1006800020910001309101012115310541F42DB770
:100690003EB74091040150910501241B350BE091B8
:1006A0009601F0919701E217F307A0F42E1B3F0B80
:1006B0002817390778F0AC014E5F5F4F24173507D4
:1006C00048F04E0F5F1F509397014093960181931E
:1006D000919302C0E0E0F0E0CF01DF91CF91089567
:1006E000CF93DF93009709F487C0FC013297138200
:1006F0001282C0919801D0919901209781F42081B4
:100700003181280F391F80919601909197018217AE
:10071000930779F5F0939701E09396016DC0DE01A0
:1007200020E030E0AE17BF0750F412964D915C9177
:1007300013979D014115510509F1DA01F3CFB383F8
:10074000A28340815181840F951F8A179B0771F402
:100750008D919C911197840F951F029691838083B0
:1007600012968D919C911397938382832115310565
:1007700029F4F0939901E09398013EC0D9011396B2
:10078000FC93EE9312974D915D91A40FB51FEA175C
:10079000FB0779F480819181840F951F0296D9011E
:1007A00011969C938E938281938113969C938E9342
:1007B0001297E0E0F0E08A819B81009719F0FE013A
:1007C000EC01F9CFCE01029628813981820F931F67
:1007D00020919601309197012817390769F43097D5
:1007E00029F4109299011092980102C0138212828A
:1007F000D0939701C0939601DF91CF9108950F9305
:100800001F93CF93DF93EC018B01009731F46115B7
:10081000710519F480E090E038C06EE070E081E08E
:1008200090E00E945D06FC010097A1F380E88383BD
:100830000115110571F01387028781E88383809188
:100840009A0190919B01892B21F4F0939B01E093F5
:100850009A012097C9F0D187C08783818260838302
:1008600080919C0190919D01892B71F4F0939D01E1
:10087000E0939C0180919E0190919F01892B21F42E
:10088000F0939F01E0939E01CF01DF91CF911F91E3
:100890000F910895A0E0B0E0E0E5F4E00C94360795
:1008A000FE01359661917191AF0180919C0190910B
:1008B0009D010E948B04E2E00C9452070F931F935A
:1008C000CF93DF93E0919C01F0919D01238121FF63
:1008D0001BC0EC0100E010E0899160919C017091D7
:1008E0009D01DB011896ED91FC911997882331F059
:1008F0000995892B89F30FEF1FEFEECF8AE0099559
:10090000892B11F4C80102C08FEF9FEFDF91CF91C7
:100910001F910F910895ACE0B0E0E1E9F4E00C9490
:1009200026077C016B018A01FC01178216828381F4
:1009300081FFBDC1CE0101964C01F7019381F60103
:1009400093FD859193FF81916F01882309F4ABC1D9
:10095000853239F493FD859193FF81916F01853242
:1009600029F4B70190E00E949606E7CF512C312C74
:1009700020E02032A0F48B3269F030F4803259F05C
:10098000833269F420612CC08D3239F0803339F420
:10099000216026C02260246023C0286021C027FD7A
:1009A00027C030ED380F3A3078F426FF06C0FAE061
:1009B0005F9E300D1124532E13C08AE0389E300DF7
:1009C0001124332E20620CC08E3221F426FD6BC11F
:1009D000206406C08C3611F4206802C0883641F4C9
:1009E000F60193FD859193FF81916F018111C1CF34
:1009F000982F9F7D9554933028F40C5F1F4FFFE391
:100A0000F9830DC0833631F0833771F0833509F0F7
:100A10005BC022C0F801808189830E5F1F4F442490
:100A20004394512C540115C03801F2E06F0E711C33
:100A3000F801A080B18026FF03C0652D70E002C0E0
:100A40006FEF7FEFC5012C870E948B062C0183017D
:100A50002C852F77222E17C03801F2E06F0E711C03
:100A6000F801A080B18026FF03C0652D70E002C0B0
:100A70006FEF7FEFC5012C870E9479062C012C8532
:100A80002068222E830123FC1BC0832D90E0481692
:100A90005906B0F4B70180E290E00E9496063A94BD
:100AA000F4CFF50127FC859127FE81915F01B70105
:100AB00090E00E94960631103A94F1E04F1A5108E6
:100AC0004114510471F7E5C0843611F0893639F5C7
:100AD000F80127FF07C060817181828193810C5FDB
:100AE0001F4F08C060817181882777FD8095982FFE
:100AF0000E5F1F4F2F76B22E97FF09C090958095FD
:100B0000709561957F4F8F4F9F4F2068B22E2AE0DE
:100B100030E0A4010E94C806A82EA81844C085375A
:100B200029F42F7EB22E2AE030E025C0F22FF97F83
:100B3000BF2E8F36C1F018F4883579F0B4C08037F5
:100B400019F0883721F0AFC02F2F2061B22EB4FEEC
:100B50000DC08B2D8460B82E09C024FF0AC09F2FC2
:100B60009660B92E06C028E030E005C020E130E0F4
:100B700002C020E132E0F801B7FE07C06081718158
:100B8000828193810C5F1F4F06C06081718180E07C
:100B900090E00E5F1F4FA4010E94C806A82EA8185F
:100BA000FB2DFF77BF2EB6FE0BC02B2D2E7FA5147D
:100BB00050F4B4FE0AC0B2FC08C02B2D2E7E05C036
:100BC0007A2C2B2D03C07A2C01C0752C24FF0DC06C
:100BD000FE01EA0DF11D8081803311F4297E09C0E8
:100BE00022FF06C07394739404C0822F867809F0A4
:100BF000739423FD13C020FF06C05A2C731418F4FD
:100C0000530C5718732C731468F4B70180E290E00A
:100C10002C870E94960673942C85F5CF731410F4DC
:100C2000371801C0312C24FF12C0B70180E390E0D7
:100C30002C870E9496062C8522FF17C021FF03C037
:100C400088E590E002C088E790E0B7010CC0822FF1
:100C5000867859F021FD02C080E201C08BE227FDB9
:100C60008DE2B70190E00E949606A51438F4B70112
:100C700080E390E00E9496065A94F7CFAA94F4017C
:100C8000EA0DF11D8081B70190E00E949606A11047
:100C9000F5CF332009F451CEB70180E290E00E94F5
:100CA00096063A94F6CFF7018681978102C08FEFBE
:100CB0009FEF2C96E2E10C9442070F931F93CF9382
:100CC000DF93869F8001879F100D969F100D112442
:100CD000C8010E94D802EC01009729F0A80160E049
:100CE00070E00E948406CE01DF91CF911F910F9199
:100CF0000895FC010590615070400110D8F780956F
:100D000090958E0F9F1F0895DC0101C06D93415097
:100D10005040E0F70895FC016150704001900110CF
:100D2000D8F7809590958E0F9F1F08950F931F936E
:100D3000CF93DF93182F092FEB018B8181FD03C027
:100D40008FEF9FEF20C082FF10C04E815F812C810A
:100D50003D81421753077CF4E881F9819F012F5FA1
:100D60003F4F39832883108306C0E885F985812F9A
:100D70000995892B29F72E813F812F5F3F4F3F83B4
:100D80002E83812F902FDF91CF911F910F91089586
:100D9000FA01AA27283051F1203181F1E8946F93AC
:100DA0006E7F6E5F7F4F8F4F9F4FAF4FB1E03ED052
:100DB000B4E03CD0670F781F891F9A1FA11D680FF0
:100DC000791F8A1F911DA11D6A0F711D811D911D23
:100DD000A11D20D009F468943F912AE0269F112498
:100DE0003019305D3193DEF6CF010895462F4770FC
:100DF000405D4193B3E00FD0C9F7F6CF462F4F7057
:100E0000405D4A3318F0495D31FD4052419302D0B4
:100E1000A9F7EACFB4E0A69597958795779567955A
:100E2000BA95C9F700976105710508959B01AC015A
:100E30000A2E06945795479537952795BA95C9F781
:100E4000620F731F841F951FA01D08952F923F925C
:100E50004F925F926F927F928F929F92AF92BF92CA
:100E6000CF92DF92EF92FF920F931F93CF93DF9376
:100E7000CDB7DEB7CA1BDB0B0FB6F894DEBF0FBED3
:100E8000CDBF09942A88398848885F846E847D8420
:100E90008C849B84AA84B984C884DF80EE80FD8022
:100EA0000C811B81AA81B981CE0FD11D0FB6F89498
:0E0EB000DEBF0FBECDBFED010895F894FFCF59
:100EBE000000A001200048656C6C6F200A0D006DCB
:100ECE006573736167653A202573200A0D0065729C
:100EDE00723A206E6F206D736700616E7377657264
:100EEE003A202573200A0D0053797374656D206EB8
:100EFE006F7420696E206E6F726D616C206D6F6401
:100F0E00652E204162616E646F6E20736869702E6B
:100F1E00004D435032353135206973204E4F5420E9
:100F2E00696E20636F6E66696775726174696F6E44
:100F3E00206D6F64652061667465722072657365DD
:060F4E0074210A0D0000F1
:00000001FF
