S01700004279676765726E42656C6C4C756E642E737265632D
S11300000C94B4010C94D1010C94D1010C94D10141
S11300100C94D1010C94D1010C94D1010C94D10114
S11300200C94D1010C94D1010C94D1010C94D10104
S11300300C94D1010C94D1010C9437060C94D10189
S11300400C94D1010C94D1010C94D1010C94D101E4
S11300500C94D1010C94D1010C94D1010C94D101D4
S11300600C94D1010C94D1010C94D1010C94D101C4
S1130070000000000000000000065F5F06000000B2
S11300800007070007070000147F7F147F7F140018
S1130090242E6B6B3A120000466630180C66620020
S11300A0307A4F5D377A48000407030000000000EF
S11300B0001C3E63410000000041633E1C00000040
S11300C0082A3E1C1C3E2A0808083E3E0808000078
S11300D000A0E0600000000008080808080800000C
S11300E000006060000000006030180C060301008E
S11300F03E7F594D7F3E000042427F7F40400000DA
S1130100627359496F660000226349497F360000D3
S1130110181C16137F7F1000276745457D390000A2
S11301203C7E4B4979300000036371190F070000CE
S1130130367F49497F360000064F49693F1E00005B
S113014000006C6C0000000000A0EC6C00000000DB
S1130150081C366341000000141414141414000025
S1130160004163361C080000020351590F060000C9
S11301703E7F415D5D1F1E007C7E13137E7C00006C
S1130180417F7F49497F36001C3E63414163220021
S1130190417F7F41637F1C00417F7F495D41630054
S11301A0417F7F491D0103001C3E6341517372006E
S11301B07F7F08087F7F000000417F7F41000000AF
S11301C0307040417F3F0100417F7F081C7763000E
S11301D0417F7F41406070007F7F060C067F7F0077
S11301E07F7F060C187F7F001C3E6341633E1C002A
S11301F0417F7F49090F06001E3F21717F5E000089
S1130200417F7F19396F460026674D597B320000C4
S113021003417F7F410300007F7F40407F7F0000D8
S11302201F3F60603F1F00007F7F3018307F7F00DA
S113023063771C081C776300074F78784F0700002A
S11302406773594D47637100007F7F41410000008F
S11302500103060C183060000041417F7F0000005C
S1130260080C0603060C0800808080808080808053
S11302700000030704000000207454543C7840003C
S1130280413F7F44447C3800387C44446C2800005F
S1130290307848493F7F4000387C54545C18000053
S11302A0487E7F490302000098BCA4A4F87C0400A3
S11302B0417F7F08047C780000447D7D400000007D
S11302C040C484FD7D000000417F7F10386C4400F1
S11302D000417F7F400000007C7C0C180C7C78007F
S11302E07C7C04047C780000387C44447C38000026
S11302F084FCF8A4243C1800183C24A4F8FC8400D2
S1130300447C78441C180000485C54547424000055
S113031000043E7F442400003C7C40403C7C400080
S11303201C3C60603C1C00003C7C6030607C3C00F9
S1130330446C3810386C44009CBCA0A0FC7C0000C9
S11303404C64745C4C64000008083E774141000032
S113035000000077770000004141773E0808000064
S1130360020301030203010011241FBECFEFD4E0F6
S1130370DEBFCDBF11E0A0E0B1E0E8EAFCE102C0DD
S113038005900D92AA37B107D9F721E0AAE7B1E0A9
S113039001C01D92A438B207E1F70E94EC010C944D
S11303A0520E0C94000083709078992324F40197E2
S11303B08C6F9F6F01968C5F8093001482E48A9502
S11303C0F1F700C080910014089580B7806280BF67
S11303D085B7806885BF089580E895E20E945E072E
S11303E00E94E5010E94D1050E94F604FDCFCF933F
S11303F0DF9300D000D01F92CDB7DEB780E090E04D
S11304000E94FF060F2EFFE1EF2EF12CF02D0FE3DB
S113041010E00E948C0229833A834B835C836D83B2
S1130420613089F068F0623019F0633029F00DC052
S113043081E0E81AF10809C09FEFE91AF90A05C03A
S11304400150110902C00F5F1F4FA701B80180E0DE
S113045090E00E94130780E090E00E94FF0587EA85
S113046091E60197F1F700C00000D3CFCF92DF925D
S1130470EF92FF920F931F93CF93DF938C01EB01C5
S1130480BC01882777FD8095982F0E947E086B0118
S11304907C01E894F7F820E030E048E452E4C70136
S11304A0B6010E94DF07882384F4BE01882777FD04
S11304B08095982F0E947E089F7720E030E048E4E2
S11304C052E40E94DF078823DCF0BE01882777FD11
S11304D08095982F0E947E089B01AC015F77C7012D
S11304E0B6010E94DF0788232CF41C161D0654F461
S11304F082E009C081E0101611062CF080E003C0F0
S113050084E001C083E0DF91CF911F910F91FF90B0
S1130510EF90DF90CF900895CF92DF92EF92FF9209
S11305200F931F93CF93DF9300D000D01F92CDB7CA
S1130530DEB782E090E00E94D301C0900601D09023
S11305400701E0900801F0900901BC01882777FDBC
S11305508095982F0E947E08A70196010E947A0731
S113056020E030E048EC52E40E942E09A7019601F5
S11305700E94E3070E944B08162F072F83E090E0A8
S11305800E94D301C0900A01D0900B01E0900C01AD
S1130590F0900D01BC01882777FD8095982F0E946B
S11305A07E08A70196010E947A0720E030E048EC1B
S11305B052E40E942E09A70196010E94E3070E94BB
S11305C04B08F62EE72E612F702F8F2D9E2D0E9443
S11305D036024F2D5E2D5A834983412F502F5C8361
S11305E04B832F2D3A815C81682F70E080E090E08E
S11305F00F900F900F900F900F90DF91CF911F915C
S11306000F91FF90EF90DF90CF900895CF93DF93F9
S11306101F92CDB7DEB728EE33E0A901481B590B72
S1130620CA0168EC70E00E949109605D698380E012
S113063090E00E94FF0640E050E06EE071E080E050
S113064090E00E945F0642E050E06CE171E080E0DF
S113065090E00E945F0620E630E042E050E0BE01F8
S11306606F5F7F4F80E090E00E94AD0680E090E0F5
S11306700E94FF050F90DF91CF910895BF92CF9212
S1130680DF92EF92FF920F931F93CF93DF93E12CAE
S1130690F12C1FE70FE7CFE7DFE70F2EF8ECCF2EA3
S11306A0D12CF02D82E090E00E94D301B82E83E09B
S11306B090E00E94D301BC1608F4CB2D811708F4F6
S11306C0182F081708F4082FDB1508F4DB2D8FEF1B
S11306D097E10197F1F700C00000C701B6010E943D
S11306E09109892B19F4C7010E9406039FEFE91AA7
S11306F0F90A88EEE81683E0F806A1F66D2F70E09B
S11307006C1B7109882777FD8095982F0E947E08BD
S113071020E030E040E05FE30E942E096093060190
S1130720709307018093080190930901602F70E092
S1130730611B7109882777FD8095982F0E947E0898
S113074020E030E040E05FE30E942E0960930A015C
S113075070930B0180930C0190930D011F920F93E2
S11307601F921F931F92DF931F92CF9388E291E011
S11307709F938F930E94450A8DB79EB70A960FB632
S1130780F8949EBF0FBE8DBFDF91CF911F910F9143
S1130790FF90EF90DF90CF90BF9008952F923F92FB
S11307A04F925F926F927F928F929F92AF92BF927D
S11307B0CF92DF92EF92FF920F931F93CF93DF9329
S11307C000D01F92CDB7DEB77C0180E090E00E949C
S11307D0FF06D7016D917C9140E050E080E090E00D
S11307E00E945F06F70184899589181619060CF092
S11307F06DC0C70104969B838A83CC24C394D12CF7
S11308006894222423F8312CAA81BB816D907D90B9
S1130810BB83AA83D301ED91FC9180818983F70185
S113082040AD51ADC60101974817590759F44F5FC0
S11308305F4F20E030E064E371E080E090E00E94EC
S1130840AD0609C020E030E0A60166E271E080E078
S113085090E00E94AD068981882359F16894AA2406
S1130860A3F8B12C88248394912C1EC0242D352DFB
S1130870A601BE016F5F7F4F80E090E00E94AD064D
S1130880015011090115110589F7D301ED91FC916E
S1130890E80DF91D80818983BFEF8B1A9B0AE8E07C
S11308A0AE0EB11C882329F04A2C5B2C022D132D8B
S11308B0DDCFC601FFEFCF1ADF0AD70154962D9181
S11308C03C915597821793070CF49ECFF70186A9A4
S11308D097A9181619060CF06FC03701F6E16F0ED0
S11308E0711CC12CD12C6894442443F8512CD3019D
S11308F08D909D903D01F40180818983D701D89624
S11309008D919C91D99754964D915C9155974C0D2E
S11309105D1D8417950761F4AC014F5F5F4F20E0C4
S113092030E064E371E080E090E00E94AD060AC02C
S11309304F5F5F4F20E030E066E271E080E090E0DE
S11309400E94AD068981882359F1BFEF8B1A9B0A57
S11309506894AA24A3F8B12C1EC0F70144895589D0
S11309604C0D5D1D4F5F5F4F222D332DBE016F5F18
S11309707F4F80E090E00E94AD06015011090115FF
S1130980110559F7D4018D914D018983B8E0AB0E5F
S1130990B11C882329F02A2C3B2C042D152DDDCFE6
S11309A0EFEFCE1ADE0AD701D6968D919C91D79798
S11309B0C816D9060CF49BCF80E090E00E94FF0596
S11309C00F900F900F90DF91CF911F910F91FF9097
S11309D0EF90DF90CF90BF90AF909F908F907F90DB
S11309E06F905F904F903F902F900895CF93DF9337
S11309F0CDB7DEB7CD5ED1090FB6F894DEBF0FBE1A
S1130A00CDBF4AE38E010F5F1F4FD801E42F1D9223
S1130A10EA95E9F786E391E09A83898383E090E09D
S1130A209E8B8D8BDE01DB96FD01842F11928A95BE
S1130A30E9F780E491E09CAF8BAF1EAF0DAFBE83AE
S1130A40AD83FE01EB58FF4FDF01842F1D928A9581
S1130A50E9F78AE491E0918380831383028381E040
S1130A6090E097AB86AB27EF31E037A326A324E5CC
S1130A7031E0378B268BF887EF83FA96DF011D92DE
S1130A804A95E9F723E631E0318320831383028317
S1130A9097AB86AB8EE393E097A386A38CE691E0B5
S1130AA0978B868BFA87E9876894AA24A2F8F801C1
S1130AB0C6A8D7A8E488F5880E948C02B62EC75130
S1130AC0DF4F2883C95ED040C651DF4F3883CA5EEA
S1130AD0D040C551DF4F4883CB5ED040C451DF4F77
S1130AE05883CC5ED040C351DF4F6883CD5ED04085
S1130AF0862FA61609F44AC0B6016E0D7F1D8130FB
S1130B0049F1F8F0823019F0833079F03FC0D80110
S1130B10D8968D919C91D9970197860F971F0E9423
S1130B209109F80191AF80AF31C0D801D8968D9169
S1130B309C91D99701960E949109F80191AF80AFD9
S1130B4025C0D80112968D919C9113970097F1F0CE
S1130B508C011CC0F80180AD91AD248935898217C0
S1130B60930744F40296880F991FE80FF91F008138
S1130B7011810CC0821B930B4396FC01EE0FFF1FE7
S1130B80E00FF11F0190F081E02D0995C8010E944A
S1130B90CE0387EA91E60197F1F700C00000AB2C81
S1130BA086CFE0E0F0E18EEA808381EA80838AEDFB
S1130BB0808382E1808388EC808388EA80838FE36A
S1130BC0808385ED808380E8808381E8808380E56D
S1130BD0808389ED808381E2808380E2808382E068
S1130BE080838BED808380E380838DEA8083108211
S1130BF084EA808386EA80838FEA80830895AF92B3
S1130C00BF92CF92DF92EF92FF920F931F93CF93F5
S1130C10DF935C01C0E0D0E0E12CF12CC12C68949E
S1130C20DD24D4F800E012E1CE019E012F773327B2
S1130C30232B39F420EB2E0DF6012083FFEFEF1A5E
S1130C40FF0A8A0D9B1D0E944F07F801808321969D
S1130C50C115F4E0DF0741F7DF91CF911F910F91A8
S1130C60FF90EF90DF90CF90BF90AF9008951F92C8
S1130C700F920FB60F9211242F933F934F935F93CC
S1130C806F937F938F939F93AF93BF93EF93FF9350
S1130C9080E090E00E94FF051DBC1CBCFF91EF9119
S1130CA0BF91AF919F918F917F916F915F914F9180
S1130CB03F912F910F900FBE0F901F901895AF92F8
S1130CC0BF92CF92DF92EF92FF920F931F93CF9335
S1130CD0DF936A01D694DC2CCC24D794C794C80E35
S1130CE0D91EFB01E080EE2069F15B01FFEFAF1A32
S1130CF0BF0A15C0CE01F701E80FF91F6491EC019A
S1130D00219670E00E945307C017D10799F748E075
S1130D10C40ED11CF501E1905F01EE2099F086012B
S1130D20085F1F4FF12CEE0CFF1CEE0CFF1CEE0CA9
S1130D30FF1C97012C193D09C601A90140595040D7
S1130D407A01D9CFDF91CF911F910F91FF90EF904E
S1130D50DF90CF90BF90AF900895EF92FF920F93E2
S1130D601F93CF93DF937B018A011695102F0027E1
S1130D7017950795800F911F8C01020F131FC0E078
S1130D80D0E0D701EC91F0E0B097EE0FFF1FEE0F2B
S1130D90FF1FEE0FFF1FEC0FFD1FE059FF4F649183
S1130DA070E0CE01800F911F0E9453072196C83036
S1130DB0D10539F7DF91CF911F910F91FF90EF90FB
S1130DC008950F931F93CF93DF938B011695102FE4
S1130DD0002717950795080F191FC0E0D0E060E0C1
S1130DE070E0CE01800F911F0E9453072196C038F6
S1130DF0D105A9F7DF91CF911F910F9108950F931A
S1130E001F93CF93DF938C01C0E0D0E0BE01C801F3
S1130E100E94E1062196C830D105C1F7DF91CF9138
S1130E201F910F9108950F931F93CF93DF93EA01BE
S1130E309A01DD2314F4295F3F4F89011595079525
S1130E4015950795159507951695102F0027179555
S1130E500795080F191F060F171FC8010E944F0797
S1130E60AE0147705078552334F441505109486F0E
S1130E705F6F4F5F5F4F21E030E0B90102C0660F42
S1130E80771F4A95E2F7AB01482B642F70E0C80145
S1130E900E945307DF91CF911F910F910895985E9F
S1130EA0FC0180810895FC01F85E808160830895CF
S1130EB05D9BFECF8CB980E090E008959C0140E0FA
S1130EC050E060E070EB84E090E00E94A5092150BE
S1130ED0310930BD29B98AB188618AB980B586687B
S1130EE080BD60E070E088E597E00E94FA0980E048
S1130EF090E008955058BB27AA270ED075C166D13B
S1130F0030F06BD120F031F49F3F11F41EF45BC13B
S1130F100EF4E095E7FB51C1E92F77D180F3BA17BE
S1130F20620773078407950718F071F49EF58FC163
S1130F300EF4E0950B2EBA2FA02D0B01B9019001F0
S1130F400C01CA01A0011124FF27591B99F0593F34
S1130F5050F4503E68F11A16F040A22F232F342F7C
S1130F604427585FF3CF469537952795A795F040CA
S1130F705395C9F77EF41F16BA0B620B730B840BDF
S1130F80BAF09150A1F0FF0FBB1F661F771F881F97
S1130F90C2F70EC0BA0F621F731F841F48F48795EF
S1130FA077956795B795F7959E3F08F0B3CF9395DE
S1130FB0880F08F09927EE0F979587950895D9D053
S1130FC008F481E008950CD00FC107D140F0FED0A1
S1130FD030F021F45F3F19F0F0C0511139C1F3C072
S1130FE014D198F39923C9F35523B1F3951B550BE9
S1130FF0BB27AA2762177307840738F09F5F5F4FE8
S1131000220F331F441FAA1FA9F333D00E2E3AF028
S1131010E0E830D091505040E695001CCAF729D042
S1131020FE2F27D0660F771F881FBB1F2617370791
S11310304807AB07B0E809F0BB0B802DBF01FF27C1
S113104093585F4F2AF09E3F510568F0B6C000C127
S11310505F3FECF3983EDCF3869577956795B795FB
S1131060F7959F5FC9F7880F911D9695879597F916
S11310700895E1E0660F771F881FBB1F621773078F
S11310808407BA0720F0621B730B840BBA0BEE1FA4
S113109088F7E095089504D06894B111D9C00895F3
S11310A0BCD088F09F5790F0B92F9927B751A0F082
S11310B0D1F0660F771F881F991F1AF0BA95C9F7E8
S11310C012C0B13081F0C3D0B1E00895C0C0672F21
S11310D0782F8827B85F39F0B93FCCF38695779598
S11310E06795B395D9F73EF4909580957095619581
S11310F07F4F8F4F9F4F0895E89409C097FB3EF4AC
S113110090958095709561957F4F8F4F9F4F992350
S1131110A9F0F92F96E9BB279395F69587957795CE
S11311206795B795F111F8CFFAF4BB0F11F460FF8E
S11311301BC06F5F7F4F8F4F9F4F16C0882311F0E6
S113114096E911C0772321F09EE8872F762F05C0FA
S1131150662371F096E8862F70E060E02AF09A9595
S1131160660F771F881FDAF7880F9695879597F98A
S11311700895990F0008550FAA0BE0E8FEEF161624
S11311801706E807F907C0F012161306E407F50777
S113119098F0621B730B840B950B39F40A2661F0EB
S11311A0232B242B252B21F408950A2609F4A1408E
S11311B0A6958FEF811D811D089597F99F6780E89B
S11311C070E060E008959FEF80EC089500240A9495
S11311D01616170618060906089500240A9412160E
S11311E01306140605060895092E0394000C11F441
S11311F0882352F0BB0F40F4BF2B11F460FF04C0EE
S11312006F5F7F4F8F4F9F4F089557FD9058440F46
S1131210551F59F05F3F71F04795880F97FB991F51
S113122061F09F3F79F0879508951216130614060E
S1131230551FF2CF4695F1DF08C01616170618069B
S1131240991FF1CF86957105610508940895E89476
S1131250BB2766277727CB0197F908950BD0C4CF16
S1131260B5DF28F0BADF18F0952309F0A6CFABCF8D
S11312701124EECFCADFA0F3959FD1F3950F50E070
S1131280551F629FF001729FBB27F00DB11D639F34
S1131290AA27F00DB11DAA1F649F6627B00DA11DDA
S11312A0661F829F2227B00DA11D621F739FB00D80
S11312B0A11D621F839FA00D611D221F749F3327F0
S11312C0A00D611D231F849F600D211D822F762F89
S11312D06A2F11249F5750408AF0E1F088234AF086
S11312E0EE0FFF1FBB1F661F771F881F91505040D2
S11312F0A9F79E3F510570F060CFAACF5F3FECF392
S1131300983EDCF3869577956795B795F795E795BD
S11313109F5FC1F7FE2B880F911D9695879597F9CE
S1131320089597FB072E16F4009407D077FD09D093
S11313300E94C40907FC05D03EF4909581959F4F07
S11313400895709561957F4F0895052E97FB1EF4BF
S113135000940E94BC0957FD07D00E94D80907FCDD
S113136003D04EF40C94BC095095409530952195CA
S11313703F4F4F4F5F4F08959095809570956195BD
S11313807F4F8F4F9F4F0895AA1BBB1B51E107C08E
S1131390AA1FBB1FA617B70710F0A61BB70B881F01
S11313A0991F5A95A9F780959095BC01CD01089590
S11313B0A1E21A2EAA1BBB1BFD010DC0AA1FBB1F55
S11313C0EE1FFF1FA217B307E407F50720F0A21BC7
S11313D0B30BE40BF50B661F771F881F991F1A9434
S11313E069F760957095809590959B01AC01BD015E
S11313F0CF0108950F931F93CF93DF93EC018B01DB
S1131400009731F46115710519F480E090E038C05B
S11314106EE070E081E090E00E942B0CFC010097EC
S1131420A1F380E883830115110571F01387028706
S113143081E8838380917A0190917B01892B21F447
S1131440F0937B01E0937A012097C9F0D187C0879C
S113145083818260838380917C0190917D01892BBB
S113146071F4F0937D01E0937C0180917E01909171
S11314707F01892B21F4F0937F01E0937E01CF015A
S1131480DF91CF911F910F910895A0E0B0E0EBE4BC
S1131490FAE00C942B0EFE01359661917191AF0127
S11314A080917C0190917D010E94590AE2E00C94A4
S11314B0470EACE0B0E0EFE5FAE00C941B0E7C01C3
S11314C06B018A01FC0117821682838181FFBDC1F1
S11314D0CE0101964C01F7019381F60193FD8591AC
S11314E093FF81916F01882309F4ABC1853239F4EC
S11314F093FD859193FF81916F01853229F4B701A2
S113150090E00E948B0DE7CF512C312C20E020324B
S1131510A0F48B3269F030F4803259F0833269F4EC
S113152020612CC08D3239F0803339F4216026C01B
S11315302260246023C0286021C027FD27C030ED2D
S1131540380F3A3078F426FF06C0FAE05F9E300D7B
S11315501124532E13C08AE0389E300D1124332EEB
S113156020620CC08E3221F426FD6BC1206406C0BB
S11315708C3611F4206802C0883641F4F60193FDDC
S1131580859193FF81916F018111C1CF982F9F7D28
S11315909554933028F40C5F1F4FFFE3F9830DC07B
S11315A0833631F0833771F0833509F05BC022C094
S11315B0F801808189830E5F1F4F44244394512C8A
S11315C0540115C03801F2E06F0E711CF801A080BF
S11315D0B18026FF03C0652D70E002C06FEF7FEF7E
S11315E0C5012C870E94800D2C0183012C852F7747
S11315F0222E17C03801F2E06F0E711CF801A08092
S1131600B18026FF03C0652D70E002C06FEF7FEF4D
S1131610C5012C870E946E0D2C012C852068222E7A
S1131620830123FC1BC0832D90E048165906B0F4B7
S1131630B70180E290E00E948B0D3A94F4CFF5015B
S113164027FC859127FE81915F01B70190E00E94FC
S11316508B0D31103A94F1E04F1A510841145104A2
S113166071F7E5C0843611F0893639F5F80127FFA2
S113167007C060817181828193810C5F1F4F08C014
S113168060817181882777FD8095982F0E5F1F4FA9
S11316902F76B22E97FF09C090958095709561952D
S11316A07F4F8F4F9F4F2068B22E2AE030E0A40175
S11316B00E94BD0DA82EA81844C0853729F42F7E9A
S11316C0B22E2AE030E025C0F22FF97FBF2E8F36EC
S11316D0C1F018F4883579F0B4C0803719F0883730
S11316E021F0AFC02F2F2061B22EB4FE0DC08B2D80
S11316F08460B82E09C024FF0AC09F2F9660B92EBB
S113170006C028E030E005C020E130E002C020E15E
S113171032E0F801B7FE07C0608171818281938154
S11317200C5F1F4F06C06081718180E090E00E5F06
S11317301F4FA4010E94BD0DA82EA818FB2DFF77F2
S1131740BF2EB6FE0BC02B2D2E7FA51450F4B4FE75
S11317500AC0B2FC08C02B2D2E7E05C07A2C2B2D7E
S113176003C07A2C01C0752C24FF0DC0FE01EA0DC4
S1131770F11D8081803311F4297E09C022FF06C047
S11317807394739404C0822F867809F0739423FDB4
S113179013C020FF06C05A2C731418F4530C5718A6
S11317A0732C731468F4B70180E290E02C870E94D4
S11317B08B0D73942C85F5CF731410F4371801C076
S11317C0312C24FF12C0B70180E390E02C870E94E3
S11317D08B0D2C8522FF17C021FF03C088E590E004
S11317E002C088E790E0B7010CC0822F867859F0D8
S11317F021FD02C080E201C08BE227FD8DE2B7012A
S113180090E00E948B0DA51438F4B70180E390E0BA
S11318100E948B0D5A94F7CFAA94F401EA0DF11D9E
S11318208081B70190E00E948B0DA110F5CF332089
S113183009F451CEB70180E290E00E948B0D3A94F6
S1131840F6CFF7018681978102C08FEF9FEF2C9628
S1131850E2E10C94370E0F931F93CF93DF93869F8F
S11318608001879F100D969F100D1124C8010E94BE
S1131870470CEC01009729F0A80160E070E00E9499
S1131880790DCE01DF91CF911F910F910895CF93E0
S1131890DF938230910510F482E090E0E0918201C0
S11318A0F091830120E030E0A0E0B0E0309739F11E
S11318B04081518148175907B8F04817590771F406
S11318C082819381109729F013969C938E9312979B
S11318D02CC0909383018093820127C02115310588
S11318E031F04217530718F0A901DB0101C0EF01E1
S11318F09A01BD01DF010280F381E02DD7CF2115CC
S11319003105F9F0281B390B2430310580F48A8124
S11319109B816115710521F0FB019383828304C0CF
S11319209093830180938201FE01329644C0FE01AC
S1131930E20FF31F81939193225031093983288355
S11319403AC02091800130918101232B41F42091F0
S11319500201309103013093810120938001209191
S11319600001309101012115310541F42DB73EB735
S11319704091040150910501241B350BE091800135
S1131980F0918101E217F307A0F42E1B3F0B2817F7
S1131990390778F0AC014E5F5F4F2417350748F0E4
S11319A04E0F5F1F50938101409380018193919367
S11319B002C0E0E0F0E0CF01DF91CF910895CF9332
S11319C0DF93009709F487C0FC01329713821282D7
S11319D0C0918201D0918301209781F420813181CB
S11319E0280F391F809180019091810182179307FC
S11319F079F5F0938101E09380016DC0DE0120E070
S1131A0030E0AE17BF0750F412964D915C911397D6
S1131A109D014115510509F1DA01F3CFB383A28386
S1131A2040815181840F951F8A179B0771F48D9112
S1131A309C911197840F951F02969183808312962F
S1131A408D919C911397938382832115310529F4F9
S1131A50F0938301E09382013EC0D9011396FC9375
S1131A60EE9312974D915D91A40FB51FEA17FB07F2
S1131A7079F480819181840F951F0296D901119682
S1131A809C938E938281938113969C938E93129749
S1131A90E0E0F0E08A819B81009719F0FE01EC01FF
S1131AA0F9CFCE01029628813981820F931F2091AC
S1131AB08001309181012817390769F4309729F49E
S1131AC0109283011092820102C013821282D09379
S1131AD08101C0938001DF91CF910895FC010590AD
S1131AE0615070400110D8F7809590958E0F9F1F1C
S1131AF00895DC0101C06D9341505040E0F7089512
S1131B00FC016150704001900110D8F780959095C8
S1131B108E0F9F1F08950F931F93CF93DF93182F5A
S1131B20092FEB018B8181FD03C08FEF9FEF20C054
S1131B3082FF10C04E815F812C813D814217530783
S1131B407CF4E881F9819F012F5F3F4F398328831B
S1131B50108306C0E885F985812F0995892B29F71B
S1131B602E813F812F5F3F4F3F832E83812F902F04
S1131B70DF91CF911F910F910895FA01AA27283080
S1131B8051F1203181F1E8946F936E7F6E5F7F4F46
S1131B908F4F9F4FAF4FB1E03ED0B4E03CD0670FC2
S1131BA0781F891F9A1FA11D680F791F8A1F911D15
S1131BB0A11D6A0F711D811D911DA11D20D009F465
S1131BC068943F912AE0269F11243019305D3193A7
S1131BD0DEF6CF010895462F4770405D4193B3E090
S1131BE00FD0C9F7F6CF462F4F70405D4A3318F037
S1131BF0495D31FD4052419302D0A9F7EACFB4E0E8
S1131C00A6959795879577956795BA95C9F700979F
S1131C106105710508959B01AC010A2E0694579540
S1131C20479537952795BA95C9F7620F731F841F97
S1131C30951FA01D08952F923F924F925F926F922D
S1131C407F928F929F92AF92BF92CF92DF92EF9248
S1131C50FF920F931F93CF93DF93CDB7DEB7CA1BC9
S1131C60DB0B0FB6F894DEBF0FBECDBF09942A88F4
S1131C70398848885F846E847D848C849B84AA849C
S1131C80B984C884DF80EE80FD800C811B81AA8129
S1131C90B981CE0FD11D0FB6F894DEBF0FBECDBFF4
S10B1CA0ED010895F894FFCF53
S1131CA80000840120000000FE420000FE424D6F47
S1131CB87665204A6F79737469636B0054696D653E
S1131CC8206C6566743A20002569202569202569F9
S1131CD8202569003E004D61696E206D656E7500B2
S1131CE84869676873636F726500506C617920474F
S1131CF8616D6500506C6179204472617720476199
S1131D086D650053657474696E67730043616C692B
S10D1D186272617465204A6F79005D
S9030000FC
