S01700004279676765726E42656C6C4C756E642E737265632D
S11300000C9438000C9455000C9455000C94550035
S11300100C9455000C9455000C9455000C94550008
S11300200C9455000C9455000C9455000C945500F8
S11300300C9455000C9455000C94D5010C94550067
S11300400C9455000C9455000C9455000C945500D8
S11300500C9455000C9455000C9455000C945500C8
S11300600C9455000C9455000C9455000C945500B8
S113007011241FBECFEFD4E0DEBFCDBF11E0A0E05E
S1130080B1E0E6EAFDE002C005900D92A036B107AA
S1130090D9F721E0A0E6B1E001C01D92AA36B2076B
S11300A0E1F70E945E000C94D1060C94000080B726
S11300B0806280BF85B7806885BF0895CF93DF9342
S11300C0CDB7DEB766970FB6F894DEBF0FBECDBFCF
S11300D080E895E20E941C020E9457000E946F0172
S11300E00E94B7000F2EF6E0CF2EF1E0DF2EF02DA8
S11300F0AA24A394B12C0F2EF8E68F2EF02D689429
S1130100992492F80F2EFFE0EF2EF1E0FF2EF02D50
S11301100EE111E0DF92CF920E94EB03BD86AC8624
S11301208F869E86CE010C960E94C0008F851F92FA
S11301308F93FF92EF920E94EB03CE0101960E94EF
S1130140F1008C811F928F931F930F930E94EB03F6
S11301502FEF8FEF9EE0215080409040E1F700C0E8
S113016000000FB6F894DEBF0FBECDBFD3CF0E9400
S113017021010E94190160E48FE00E944201089568
S1130180EF92FF920F931F93CF93DF937C01FC01B7
S1130190608182E30E944201F701628185E30E944B
S11301A04201F7018281882391F087010D5F1F4F7F
S11301B0C0E0D0E0F80161918F0186E30E94420122
S11301C02196F701228130E0C217D3079CF380E027
S11301D00E945601DF91CF911F910F91FF90EF90F4
S11301E00895EF92FF920F931F93CF93DF937C01B7
S11301F085E60E943001F7018283882399F0870104
S11302000D5F1F4FC0E0D0E08C2F8A590E9430014F
S1130210F80181938F012196F701228130E0C21702
S1130220D30794F3DF91CF911F910F91FF90EF903B
S113023008950E94100280EC0E9402020E940E02A5
S113024008950E94FD010E9419018CE291E09F93A0
S11302508F930E94EB030F900F9081E090E008953C
S1130260CF93C82F0E94100283E00E9407028C2FB4
S11302700E9407020E940A02C82F0E940E028C2FBD
S1130280CF910895CF93DF93D82FC62F0E941002E9
S113029082E00E9407028D2F0E9407028C2F0E9489
S11302A007020E940E02DF91CF910895837081307E
S11302B051F028F0823059F0833069F0089581E8D4
S11302C00E940702089582E80E940702089584E8C4
S11302D00E940702089587E80E9407020895E0E05B
S11302E0F0E18EEA808381EA80838AED808382E173
S11302F0808388EC808388EA80838FE3808385ED24
S1130300808380E8808381E8808380E5808389ED31
S1130310808381E2808380E2808382E080838BED2E
S1130320808380E380838DEA8083108284EA8083E3
S113033086EA80838FEA80830895AF92BF92CF923A
S1130340DF92EF92FF920F931F93CF93DF935C01A1
S1130350C0E0D0E0E12CF12CC12C6894DD24D4F869
S113036000E012E1CE019E012F773327232B39F4CD
S113037020EB2E0DF6012083FFEFEF1AFF0A8A0D02
S11303809B1D0E941202F80180832196C115F4E09E
S1130390DF0741F7DF91CF911F910F91FF90EF900D
S11303A0DF90CF90BF90AF9008951F920F920FB639
S11303B00F9211242F933F934F935F936F937F93E7
S11303C08F939F93AF93BF93EF93FF9380E090E05D
S11303D00E949D011DBC1CBCFF91EF91BF91AF9188
S11303E09F918F917F916F915F914F913F912F9149
S11303F00F900FBE0F901F90189580ED87BB81E57D
S11304008DB908958FB9779BFECF8FB108950E945F
S11304100202089580E00E9402020895C49A089599
S1130420C4980895985EFC01808108955D9BFECF79
S11304308CB980E090E008959C0140E050E060E0D9
S113044070EB84E090E00E9438022150310930BD05
S113045029B98AB188618AB980B5866880BD60E0AF
S113046070E086E192E00E94A00380E090E00895AD
S1130470052E97FB1EF400940E944F0257FD07D0EF
S11304800E94570207FC03D04EF40C944F0250957F
S11304904095309521953F4F4F4F5F4F089590956C
S11304A08095709561957F4F8F4F9F4F0895A1E27E
S11304B01A2EAA1BBB1BFD010DC0AA1FBB1FEE1FDA
S11304C0FF1FA217B307E407F50720F0A21BB30B25
S11304D0E40BF50B661F771F881F991F1A9469F7A1
S11304E060957095809590959B01AC01BD01CF01FD
S11304F00895CF93DF938230910510F482E090E069
S1130500E0916201F091630120E030E0A0E0B0E00E
S1130510309739F14081518148175907B8F048178D
S1130520590771F482819381109729F013969C9353
S11305308E9312972CC0909363018093620127C01D
S11305402115310531F04217530718F0A901DB01D9
S113055001C0EF019A01BD01DF010280F381E02DAA
S1130560D7CF21153105F9F0281B390B243031057B
S113057080F48A819B816115710521F0FB019383CD
S1130580828304C09093630180936201FE013296DA
S113059044C0FE01E20FF31F81939193225031096D
S11305A0398328833AC02091600130916101232B63
S11305B041F42091020130910301309361012093B1
S11305C0600120910001309101012115310541F4B0
S11305D02DB73EB74091040150910501241B350B02
S11305E0E0916001F0916101E217F307A0F42E1B82
S11305F03F0B2817390778F0AC014E5F5F4F241783
S1130600350748F04E0F5F1F50936101409360011E
S11306108193919302C0E0E0F0E0CF01DF91CF91AC
S11306200895CF93DF93009709F487C0FC013297B4
S113063013821282C0916201D0916301209781F4E8
S113064020813181280F391F8091600190916101CF
S11306508217930779F5F0936101E09360016DC00F
S1130660DE0120E030E0AE17BF0750F412964D9142
S11306705C9113979D014115510509F1DA01F3CFFE
S1130680B383A28340815181840F951F8A179B07EE
S113069071F48D919C911197840F951F029691830B
S11306A0808312968D919C91139793838283211555
S11306B0310529F4F0936301E09362013EC0D9014E
S11306C01396FC93EE9312974D915D91A40FB51F71
S11306D0EA17FB0779F480819181840F951F0296B4
S11306E0D90111969C938E938281938113969C9346
S11306F08E931297E0E0F0E08A819B81009719F0D5
S1130700FE01EC01F9CFCE01029628813981820FD6
S1130710931F20916001309161012817390769F412
S1130720309729F4109263011092620102C013827F
S11307301282D0936101C0936001DF91CF9108953B
S11307400F931F93CF93DF93EC018B01009731F448
S11307506115710519F480E090E038C06EE070E036
S113076081E090E00E94D105FC010097A1F380E8AC
S113077083830115110571F01387028781E8838350
S11307808091640190916501892B21F4F0936501B6
S1130790E09364012097C9F0D187C0878381826088
S11307A083838091660190916701892B71F4F093A2
S11307B06701E09366018091680190916901892B3A
S11307C021F4F0936901E0936801CF01DF91CF91A7
S11307D01F910F910895A0E0B0E0E1EFF3E00C94D5
S11307E0AA06FE01359661917191AF01809166016F
S11307F0909167010E94FF03E2E00C94C606ACE00E
S1130800B0E0E5E0F4E00C949A067C016B018A0107
S1130810FC0117821682838181FFBDC1CE0101963E
S11308204C01F7019381F60193FD859193FF81912A
S11308306F01882309F4ABC1853239F493FD8591A6
S113084093FF81916F01853229F4B70190E00E94F2
S11308500A06E7CF512C312C20E02032A0F48B3251
S113086069F030F4803259F0833269F420612CC08D
S11308708D3239F0803339F4216026C0226024603F
S113088023C0286021C027FD27C030ED380F3A303F
S113089078F426FF06C0FAE05F9E300D1124532E33
S11308A013C08AE0389E300D1124332E20620CC010
S11308B08E3221F426FD6BC1206406C08C3611F4FF
S11308C0206802C0883641F4F60193FD859193FFB8
S11308D081916F018111C1CF982F9F7D95549330E1
S11308E028F40C5F1F4FFFE3F9830DC0833631F00A
S11308F0833771F0833509F05BC022C0F801808131
S113090089830E5F1F4F44244394512C540115C016
S11309103801F2E06F0E711CF801A080B18026FF4F
S113092003C0652D70E002C06FEF7FEFC5012C8717
S11309300E94FF052C0183012C852F77222E17C0DE
S11309403801F2E06F0E711CF801A080B18026FF1F
S113095003C0652D70E002C06FEF7FEFC5012C87E7
S11309600E94ED052C012C852068222E830123FC96
S11309701BC0832D90E048165906B0F4B70180E2FD
S113098090E00E940A063A94F4CFF50127FC859181
S113099027FE81915F01B70190E00E940A063110A1
S11309A03A94F1E04F1A51084114510471F7E5C02B
S11309B0843611F0893639F5F80127FF07C06081C4
S11309C07181828193810C5F1F4F08C060817181A6
S11309D0882777FD8095982F0E5F1F4F2F76B22EB4
S11309E097FF09C090958095709561957F4F8F4FC3
S11309F09F4F2068B22E2AE030E0A4010E943C06FA
S1130A00A82EA81844C0853729F42F7EB22E2AE0D8
S1130A1030E025C0F22FF97FBF2E8F36C1F018F4D5
S1130A20883579F0B4C0803719F0883721F0AFC029
S1130A302F2F2061B22EB4FE0DC08B2D8460B82EF2
S1130A4009C024FF0AC09F2F9660B92E06C028E073
S1130A5030E005C020E130E002C020E132E0F801DE
S1130A60B7FE07C060817181828193810C5F1F4F43
S1130A7006C06081718180E090E00E5F1F4FA40189
S1130A800E943C06A82EA818FB2DFF77BF2EB6FEA9
S1130A900BC02B2D2E7FA51450F4B4FE0AC0B2FC5B
S1130AA008C02B2D2E7E05C07A2C2B2D03C07A2C4A
S1130AB001C0752C24FF0DC0FE01EA0DF11D8081DB
S1130AC0803311F4297E09C022FF06C07394739405
S1130AD004C0822F867809F0739423FD13C020FF8D
S1130AE006C05A2C731418F4530C5718732C73142F
S1130AF068F4B70180E290E02C870E940A067394A0
S1130B002C85F5CF731410F4371801C0312C24FF51
S1130B1012C0B70180E390E02C870E940A062C855E
S1130B2022FF17C021FF03C088E590E002C088E7D8
S1130B3090E0B7010CC0822F867859F021FD02C0E5
S1130B4080E201C08BE227FD8DE2B70190E00E94B4
S1130B500A06A51438F4B70180E390E00E940A065F
S1130B605A94F7CFAA94F401EA0DF11D8081B701DC
S1130B7090E00E940A06A110F5CF332009F451CE6B
S1130B80B70180E290E00E940A063A94F6CFF7019A
S1130B908681978102C08FEF9FEF2C96E2E10C943F
S1130BA0B6060F931F93CF93DF93869F8001879F91
S1130BB0100D969F100D1124C8010E947902EC01BA
S1130BC0009729F0A80160E070E00E94F805CE01CA
S1130BD0DF91CF911F910F910895FC010590615011
S1130BE070400110D8F7809590958E0F9F1F08953F
S1130BF0DC0101C06D9341505040E0F70895FC01C1
S1130C006150704001900110D8F7809590958E0F37
S1130C109F1F08950F931F93CF93DF93182F092FCE
S1130C20EB018B8181FD03C08FEF9FEF20C082FF1A
S1130C3010C04E815F812C813D81421753077CF4A3
S1130C40E881F9819F012F5F3F4F39832883108307
S1130C5006C0E885F985812F0995892B29F72E810E
S1130C603F812F5F3F4F3F832E83812F902FDF9152
S1130C70CF911F910F910895FA01AA27283051F1BD
S1130C80203181F1E8946F936E7F6E5F7F4F8F4FB9
S1130C909F4FAF4FB1E03ED0B4E03CD0670F781F18
S1130CA0891F9A1FA11D680F791F8A1F911DA11DFD
S1130CB06A0F711D811D911DA11D20D009F4689436
S1130CC03F912AE0269F11243019305D3193DEF6DE
S1130CD0CF010895462F4770405D4193B3E00FD094
S1130CE0C9F7F6CF462F4F70405D4A3318F0495D7F
S1130CF031FD4052419302D0A9F7EACFB4E0A69562
S1130D009795879577956795BA95C9F70097610583
S1130D10710508959B01AC010A2E069457954795D9
S1130D2037952795BA95C9F7620F731F841F951FCE
S1130D30A01D08952F923F924F925F926F927F92DF
S1130D408F929F92AF92BF92CF92DF92EF92FF92D7
S1130D500F931F93CF93DF93CDB7DEB7CA1BDB0B83
S1130D600FB6F894DEBF0FBECDBF09942A88398828
S1130D7048885F846E847D848C849B84AA84B9842F
S1130D80C884DF80EE80FD800C811B81AA81B9813B
S1130D90CE0FD11D0FB6F894DEBF0FBECDBFED014F
S1090DA00895F894FFCF52
S1130DA600006A01200048656C6C6F200A0D006D16
S1130DB66573736167653A202563200A0D00616EC9
S1130DC6737765723A202563200A0D004D4350322D
S1130DD6353135206973204E4F5420696E20636F78
S1130DE66E66696775726174696F6E206D6F64658E
S1130DF6206166746572207265736574210A0D003C
S9030000FC
