:100000000C9438000C9455000C9455000C94550039
:100010000C9455000C9455000C9455000C9455000C
:100020000C9455000C9455000C9455000C945500FC
:100030000C9455000C9455000C94CF010C94550071
:100040000C9455000C9455000C9455000C945500DC
:100050000C9455000C9455000C9455000C945500CC
:100060000C9455000C9455000C9455000C945500BC
:1000700011241FBECFEFD4E0DEBFCDBF11E0A0E062
:10008000B1E0E4E8FDE002C005900D92AC32B107AA
:10009000D9F721E0ACE2B1E001C01D92A633B2076E
:1000A000E1F70E945E000C94C0060C94000080B73B
:1000B000806280BF85B7806885BF0895CF93DF9346
:1000C000CDB7DEB766970FB6F894DEBF0FBECDBFD3
:1000D00080E895E20E940B020E9457000E9469018D
:1000E0000E94B7000F2EF6E0CF2EF1E0DF2EF02DAC
:1000F000AA24A394B12C0F2EF8E68F2EF02D68942D
:10010000992492F80F2EFFE0EF2EF1E0FF2EF02D54
:100110000EE111E0DF92CF920E94DA03BD86AC8639
:100120008F869E86CE010C960E94C0008F851F92FE
:100130008F93FF92EF920E94DA03CE0101960E9404
:10014000F1008C811F928F931F930F930E94DA030B
:100150002FEF8FEF9EE0215080409040E1F700C0EC
:1001600000000FB6F894DEBF0FBECDBFD3CF0E9404
:1001700019010E94220160E48FE00E94410108956C
:10018000EF92FF920F931F93CF93DF937C01FC01BB
:10019000608182E30E944101F701628185E30E9450
:1001A0004101F7018281882391F087010D5F1F4F84
:1001B000C0E0D0E0F80161918F0186E30E94410127
:1001C0002196F701228130E0C217D3079CF380E02B
:1001D0000E945701DF91CF911F910F91FF90EF90F7
:1001E0000895EF92FF920F931F93CF93DF937C01BB
:1001F00085E60E942C01F7018283882399F087010C
:100200000D5F1F4FC0E0D0E08C2F8A590E942C0157
:10021000F80181938F012196F701228130E0C21706
:10022000D30794F3DF91CF911F910F91FF90EF903F
:1002300008950E94F7010895882311F0C49A089543
:10024000C498089580E00E941C0180EC0E94FC018B
:1002500081E00E941C010895CF93C82F80E00E9486
:100260001C0183E00E94FC018C2F0E94FC018AE6A5
:100270000E94FC01C82F81E00E941C018C2FCF91AD
:100280000895CF93DF93D82FC62F80E00E941C01E2
:1002900082E00E94FC018D2F0E94FC018C2F0E94A5
:1002A000FC0181E00E941C01DF91CF910895813013
:1002B00041F018F0823049F0089581E80E94FC0175
:1002C000089582E80E94FC01089584E80E94FC01E0
:1002D0000895E0E0F0E18EEA808381EA80838AED90
:1002E000808382E1808388EC808388EA80838FE347
:1002F000808385ED808380E8808381E8808380E54A
:10030000808389ED808381E2808380E2808382E044
:1003100080838BED808380E380838DEA80831082ED
:1003200084EA808386EA80838FEA80830895AF928F
:10033000BF92CF92DF92EF92FF920F931F93CF93D2
:10034000DF935C01C0E0D0E0E12CF12CC12C68947B
:10035000DD24D4F800E012E1CE019E012F7733278F
:10036000232B39F420EB2E0DF6012083FFEFEF1A3B
:10037000FF0A8A0D9B1D0E940102F80180832196CD
:10038000C115F4E0DF0741F7DF91CF911F910F9185
:10039000FF90EF90DF90CF90BF90AF9008951F92A5
:1003A0000F920FB60F9211242F933F934F935F93A9
:1003B0006F937F938F939F93AF93BF93EF93FF932D
:1003C00080E090E00E9497011DBC1CBCFF91EF9162
:1003D000BF91AF919F918F917F916F915F914F915D
:1003E0003F912F910F900FBE0F901F90189580EDA9
:1003F00087BB81E58DB908958FB9779BFECF8FB10B
:100400000895985EFC01808108955D9BFECF8CB9B4
:1004100080E090E008959C0140E050E060E070EBE7
:1004200084E090E00E9427022150310930BD29B9B3
:100430008AB188618AB980B5866880BD60E070E065
:1004400085E092E00E948F0380E090E00895052E01
:1004500097FB1EF400940E943E0257FD07D00E94B5
:10046000460207FC03D04EF40C943E025095409592
:10047000309521953F4F4F4F5F4F08959095809550
:10048000709561957F4F8F4F9F4F0895A1E21A2E6F
:10049000AA1BBB1BFD010DC0AA1FBB1FEE1FFF1F28
:1004A000A217B307E407F50720F0A21BB30BE40B78
:1004B000F50B661F771F881F991F1A9469F76095BF
:1004C0007095809590959B01AC01BD01CF01089579
:1004D000CF93DF938230910510F482E090E0E091B9
:1004E0002E01F0912F0120E030E0A0E0B0E0309745
:1004F00039F14081518148175907B8F04817590719
:1005000071F482819381109729F013969C938E93B6
:1005100012972CC090932F0180932E0127C0211594
:10052000310531F04217530718F0A901DB0101C072
:10053000EF019A01BD01DF010280F381E02DD7CFE9
:1005400021153105F9F0281B390B2430310580F4D1
:100550008A819B816115710521F0FB019383828360
:1005600004C090932F0180932E01FE01329644C067
:10057000FE01E20FF31F81939193225031093983D9
:1005800028833AC020912C0130912D01232B41F476
:10059000209102013091030130932D0120932C0111
:1005A00020910001309101012115310541F42DB751
:1005B0003EB74091040150910501241B350BE09199
:1005C0002C01F0912D01E217F307A0F42E1B3F0B35
:1005D0002817390778F0AC014E5F5F4F24173507B5
:1005E00048F04E0F5F1F50932D0140932C018193D3
:1005F000919302C0E0E0F0E0CF01DF91CF91089548
:10060000CF93DF93009709F487C0FC0132971382E0
:100610001282C0912E01D0912F01209781F4208168
:100620003181280F391F80912C0190912D01821763
:10063000930779F5F0932D01E0932C016DC0DE0155
:1006400020E030E0AE17BF0750F412964D915C9158
:1006500013979D014115510509F1DA01F3CFB383D9
:10066000A28340815181840F951F8A179B0771F4E3
:100670008D919C911197840F951F02969183808391
:1006800012968D919C911397938382832115310546
:1006900029F4F0932F01E0932E013EC0D901139667
:1006A000FC93EE9312974D915D91A40FB51FEA173D
:1006B000FB0779F480819181840F951F0296D901FF
:1006C00011969C938E938281938113969C938E9323
:1006D0001297E0E0F0E08A819B81009719F0FE011B
:1006E000EC01F9CFCE01029628813981820F931F48
:1006F00020912C0130912D012817390769F430978A
:1007000029F410922F0110922E0102C0138212823E
:10071000D0932D01C0932C01DF91CF9108950F93B9
:100720001F93CF93DF93EC018B01009731F4611598
:10073000710519F480E090E038C06EE070E081E06F
:1007400090E00E94C005FC010097A1F380E883833C
:100750000115110571F01387028781E88383809169
:10076000300190913101892B21F4F0933101E09314
:1007700030012097C9F0D187C0878381826083834D
:100780008091320190913301892B71F4F093330100
:10079000E09332018091340190913501892B21F44D
:1007A000F0933501E0933401CF01DF91CF911F9198
:1007B0000F910895A0E0B0E0E0EEF3E00C9499060C
:1007C000FE01359661917191AF0180913201909156
:1007D00033010E94EE03E2E00C94B506ACE0B0E019
:1007E000E4EFF3E00C9489067C016B018A01FC01C3
:1007F00017821682838181FFBDC1CE0101964C0113
:10080000F7019381F60193FD859193FF81916F012B
:10081000882309F4ABC1853239F493FD859193FFA8
:1008200081916F01853229F4B70190E00E94F905AA
:10083000E7CF512C312C20E02032A0F48B3269F02C
:1008400030F4803259F0833269F420612CC08D324B
:1008500039F0803339F4216026C02260246023C03F
:10086000286021C027FD27C030ED380F3A3078F4DA
:1008700026FF06C0FAE05F9E300D1124532E13C0F0
:100880008AE0389E300D1124332E20620CC08E3247
:1008900021F426FD6BC1206406C08C3611F420685B
:1008A00002C0883641F4F60193FD859193FF819152
:1008B0006F018111C1CF982F9F7D9554933028F4FB
:1008C0000C5F1F4FFFE3F9830DC0833631F0833790
:1008D00071F0833509F05BC022C0F8018081898303
:1008E0000E5F1F4F44244394512C540115C038010E
:1008F000F2E06F0E711CF801A080B18026FF03C0EA
:10090000652D70E002C06FEF7FEFC5012C870E945C
:10091000EE052C0183012C852F77222E17C038017C
:10092000F2E06F0E711CF801A080B18026FF03C0B9
:10093000652D70E002C06FEF7FEFC5012C870E942C
:10094000DC052C012C852068222E830123FC1BC092
:10095000832D90E048165906B0F4B70180E290E08C
:100960000E94F9053A94F4CFF50127FC859127FE02
:1009700081915F01B70190E00E94F90531103A942E
:10098000F1E04F1A51084114510471F7E5C0843663
:1009900011F0893639F5F80127FF07C060817181B0
:1009A000828193810C5F1F4F08C06081718188270D
:1009B00077FD8095982F0E5F1F4F2F76B22E97FFF1
:1009C00009C090958095709561957F4F8F4F9F4F8F
:1009D0002068B22E2AE030E0A4010E942B06A82E47
:1009E000A81844C0853729F42F7EB22E2AE030E0C3
:1009F00025C0F22FF97FBF2E8F36C1F018F488354D
:100A000079F0B4C0803719F0883721F0AFC02F2FAC
:100A10002061B22EB4FE0DC08B2D8460B82E09C0AB
:100A200024FF0AC09F2F9660B92E06C028E030E050
:100A300005C020E130E002C020E132E0F801B7FE5D
:100A400007C060817181828193810C5F1F4F06C056
:100A50006081718180E090E00E5F1F4FA4010E94D1
:100A60002B06A82EA818FB2DFF77BF2EB6FE0BC0B5
:100A70002B2D2E7FA51450F4B4FE0AC0B2FC08C082
:100A80002B2D2E7E05C07A2C2B2D03C07A2C01C075
:100A9000752C24FF0DC0FE01EA0DF11D808180330D
:100AA00011F4297E09C022FF06C07394739404C018
:100AB000822F867809F0739423FD13C020FF06C0AF
:100AC0005A2C731418F4530C5718732C731468F4BD
:100AD000B70180E290E02C870E94F90573942C8581
:100AE000F5CF731410F4371801C0312C24FF12C055
:100AF000B70180E390E02C870E94F9052C8522FF46
:100B000017C021FF03C088E590E002C088E790E0AD
:100B1000B7010CC0822F867859F021FD02C080E217
:100B200001C08BE227FD8DE2B70190E00E94F9053C
:100B3000A51438F4B70180E390E00E94F9055A94B7
:100B4000F7CFAA94F401EA0DF11D8081B70190E07E
:100B50000E94F905A110F5CF332009F451CEB70159
:100B600080E290E00E94F9053A94F6CFF701868181
:100B7000978102C08FEF9FEF2C96E2E10C94A506BF
:100B80000F931F93CF93DF93869F8001879F100D54
:100B9000969F100D1124C8010E946802EC01009775
:100BA00029F0A80160E070E00E94E705CE01DF9126
:100BB000CF911F910F910895FC01059061507040F5
:100BC0000110D8F7809590958E0F9F1F0895DC0136
:100BD00001C06D9341505040E0F70895FC01615011
:100BE000704001900110D8F7809590958E0F9F1F4F
:100BF00008950F931F93CF93DF93182F092FEB01C5
:100C00008B8181FD03C08FEF9FEF20C082FF10C05A
:100C10004E815F812C813D81421753077CF4E8812E
:100C2000F9819F012F5F3F4F39832883108306C0CE
:100C3000E885F985812F0995892B29F72E813F8138
:100C40002F5F3F4F3F832E83812F902FDF91CF91D6
:100C50001F910F910895FA01AA27283051F12031F0
:100C600081F1E8946F936E7F6E5F7F4F8F4F9F4F40
:100C7000AF4FB1E03ED0B4E03CD0670F781F891F82
:100C80009A1FA11D680F791F8A1F911DA11D6A0F50
:100C9000711D811D911DA11D20D009F468943F9103
:100CA0002AE0269F11243019305D3193DEF6CF0102
:100CB0000895462F4770405D4193B3E00FD0C9F7C8
:100CC000F6CF462F4F70405D4A3318F0495D31FD35
:100CD0004052419302D0A9F7EACFB4E0A695979588
:100CE000879577956795BA95C9F70097610571055E
:100CF00008959B01AC010A2E0694579547953795A8
:100D00002795BA95C9F7620F731F841F951FA01D01
:100D100008952F923F924F925F926F927F928F929F
:100D20009F92AF92BF92CF92DF92EF92FF920F937A
:100D30001F93CF93DF93CDB7DEB7CA1BDB0B0FB684
:100D4000F894DEBF0FBECDBF09942A883988488841
:100D50005F846E847D848C849B84AA84B984C884D7
:100D6000DF80EE80FD800C811B81AA81B981CE0FCE
:100D7000D11D0FB6F894DEBF0FBECDBFED010895B3
:040D8000F894FFCF15
:100D840000003601200048656C6C6F200A0D006D70
:100D94006573736167653A202563200A0D00616EEF
:0C0DA400737765723A202563200A0D0069
:00000001FF
