:100000000C9450020C946D020C9430030C946D020D
:100010000C946D020C946D020C946D020C946D02A4
:100020000C946D020C946D020C946D020C946D0294
:100030000C946D020C946D020C943E0B0C946D02AA
:100040000C946D020C946D020C946D020C946D0274
:100050000C946D020C946D020C946D020C946D0264
:100060000C946D020C946D020C946D020C946D0254
:100070000C000C000C000C000C000C000C000C0020
:100080000C000C000C000C000C000C000C000C0010
:100090000C000C000C000C000C000C000C000C0000
:1000A0000C000C000C000C000C000C000C000C00F0
:1000B0000900090009000C000C000C000C000C00E9
:1000C0000C000C000C000C000C000C000C000C00D0
:1000D0000C000C000C000C000C000C000C000C00C0
:1000E0000C000C000C000C000C000C000C000900B3
:1000F000090009000C000C000C000C000C000C00A6
:100100000C000C000C000C000C000C004D0A4D0AF9
:1001100000004D0A00002D084D0A0000400C0000B0
:100120000000000020060000000000002D08000074
:100130000000200600000000270500000000E00687
:100140000000B80700004907E006000020064D0A3D
:10015000400CC00D0000EA0A400C00004D0A0000EF
:100160002D082D09B807000000002D080000000030
:10017000200600000000270500000000E006000047
:10018000B80700004907E006000020064D0A400CB1
:10019000C00D0000EA0A400C00004D0A00002D08C6
:1001A0002D09B8070000000000000000000000005A
:1001B00000065F5F06000000000707000707000059
:1001C000147F7F147F7F1400242E6B6B3A12000083
:1001D000466630180C666200307A4F5D377A480008
:1001E0000407030000000000001C3E634100000003
:1001F0000041633E1C000000082A3E1C1C3E2A08E9
:1002000008083E3E0808000000A0E0600000000072
:1002100008080808080800000000606000000000EE
:100220006030180C060301003E7F594D7F3E0000F0
:1002300042427F7F40400000627359496F66000070
:10024000226349497F360000181C16137F7F100077
:10025000276745457D3900003C7E4B4979300000D9
:10026000036371190F070000367F49497F3600008C
:10027000064F49693F1E000000006C6C0000000042
:1002800000A0EC6C00000000081C36634100000078
:100290001414141414140000004163361C080000E8
:1002A000020351590F0600003E7F415D5D1F1E0095
:1002B0007C7E13137E7C0000417F7F49497F36009E
:1002C0001C3E634141632200417F7F41637F1C00EC
:1002D000417F7F495D416300417F7F491D010300EC
:1002E0001C3E6341517372007F7F08087F7F0000CE
:1002F00000417F7F41000000307040417F3F01009E
:10030000417F7F081C776300417F7F414060700020
:100310007F7F060C067F7F007F7F060C187F7F00A3
:100320001C3E6341633E1C00417F7F49090F06006C
:100330001E3F21717F5E0000417F7F19396F4600AB
:1003400026674D597B32000003417F7F4103000047
:100350007F7F40407F7F00001F3F60603F1F0000A5
:100360007F7F3018307F7F0063771C081C77630025
:10037000074F78784F0700006773594D4763710046
:10038000007F7F41410000000103060C183060002F
:100390000041417F7F000000080C0603060C0800A6
:1003A000808080808080808000000307040000003F
:1003B000207454543C784000413F7F44447C3800D2
:1003C000387C44446C280000307848493F7F400026
:1003D000387C54545C180000487E7F4903020000BA
:1003E00098BCA4A4F87C0400417F7F08047C7800BA
:1003F00000447D7D4000000040C484FD7D0000007D
:10040000417F7F10386C440000417F7F4000000036
:100410007C7C0C180C7C78007C7C04047C780000CC
:10042000387C44447C38000084FCF8A4243C180048
:10043000183C24A4F8FC8400447C78441C18000078
:10044000485C54547424000000043E7F442400009F
:100450003C7C40403C7C40001C3C60603C1C0000FC
:100460003C7C6030607C3C00446C3810386C44004C
:100470009CBCA0A0FC7C00004C64745C4C6400003C
:1004800008083E7741410000000000777700000037
:100490004141773E08080000020301030203010006
:1004A00011241FBECFEFD4E0DEBFCDBF12E0A0E02D
:1004B000B1E0E8E5F8E302C005900D92AC3DB1076C
:1004C000D9F722E0ACEDB2E001C01D92A83EB20720
:1004D000E1F70E9404080C942A1C0C940000E19996
:1004E000FECF9FBB8EBBE09A8DB30895F894E1993F
:1004F000FECF9FBB8EBB6DBBE29AE19A78940895C4
:100500008B98939A85B7886085BF85B78B7F85BFA9
:1005100080E88BBF789408951F93CF93DF93CDB776
:10052000DEB7CA55D1090FB6F894DEBF0FBECDBFF6
:10053000182F40E150E0BE016F5F7F4F80E00E94C6
:100540002C0583E062968FAF629785E063968FAF4C
:100550006397812F90E0FC01EE0FFF1FEE0FFF1F4E
:10056000E80FF91F81E090E08C0F9D1FE80FF91F45
:10057000848164968FAF6497808165968FAF65970D
:10058000818166968FAF6697828167968FAF6797F6
:10059000838168968FAF6897CE018F5A9F4F0E94D4
:1005A0004008C65ADF4F0FB6F894DEBF0FBECDBF6E
:1005B000DF91CF911F910895CF93DF93CDB7DEB731
:1005C0002A970FB6F894DEBF0FBECDBF0E942B094D
:1005D000198228E02A836B837C838D839E830E940B
:1005E000AE086F83788789879A87CE0101960E942B
:1005F00040082A960FB6F894DEBF0FBECDBFDF913C
:10060000CF910895CF93DF93CDB7DEB72A970FB67A
:10061000F894DEBF0FBECDBFCE0101960E947308D5
:100620008981823039F0833079F0813081F40E9401
:10063000DC020DC08B810E94F7078B81882339F083
:100640008C810E94FA0703C08B810E948C022A963B
:100650000FB6F894DEBF0FBECDBFDF91CF910895E6
:100660001F920F920FB60F9211242F933F934F9327
:100670005F936F937F938F939F93AF93BF93EF930A
:10068000FF930E940203FF91EF91BF91AF919F9161
:100690008F917F916F915F914F913F912F910F902B
:1006A0000FBE0F901F901895329A0895009731F061
:1006B00000C000C0000001970097D1F708958F9205
:1006C0009F92AF92BF92CF92DF92EF92FF92CF9321
:1006D000DF934B015C0169017A0120E030E040E0EA
:1006E0005FE3C701B6010E9464160E947D15EB010D
:1006F00020E030E04AE754E4C501B4010E946416EA
:10070000A70196010E9415150E947D156B016115C8
:10071000710581F0E12CF12C3A9ACE010E9456032A
:100720003A98CE010E9456038FEFE81AF80AEC14AB
:10073000FD0491F7DF91CF91FF90EF90DF90CF9084
:10074000BF90AF909F908F9008952F923F924F92BD
:100750005F926F927F928F929F92AF92BF92CF9251
:10076000DF92EF92FF920F931F93CF93DF9300D00E
:1007700000D0CDB7DEB7082F192FF62ED72EE42ED6
:1007800019010E945403EE2009F448C0A02EB12E96
:100790000F2D1D2D4E2D50E09A01220F331F3A834D
:1007A00029831C821B820F2EF0E44F2EF2E45F2E71
:1007B000FFE06F2E712CF02DF501219131915F0139
:1007C000F801819091908F0140E050E0C301B201A7
:1007D0000E94DB16CA01B9010E94B0156B017C01B1
:1007E000829CB001839C700D929C700D112480E05E
:1007F00090E00E94AE15A70196010E945F0386E675
:1008000092E00197F1F70000EB81FC813296FC83C6
:10081000EB8329813A81E217F30771F60F900F906D
:100820000F900F90DF91CF911F910F91FF90EF905C
:10083000DF90CF90BF90AF909F908F907F906F9000
:100840005F904F903F902F900895CF93DF93CDB757
:10085000DEB7C855D1090FB6F894DEBF0FBECDBFC5
:100860008CE2E2E1F1E0DE01119601900D928A95B1
:10087000E1F78CE2EEE3F1E0DE019D9601900D924E
:100880008A95E1F721E030E046E1BE01635D7F4FEC
:10089000CE0101960E94A503C85ADF4F0FB6F89407
:1008A000DEBF0FBECDBFDF91CF91089520E137E2CB
:1008B0004EE460E770E08CE091E00E94A5030895AB
:1008C00080EB87BB81E58DB908958FB9779BFECF0B
:1008D0008FB108950E94650408958CEC0E94650410
:1008E0000895C49A0895C49808956F927F928F9244
:1008F0009F92AF92BF92CF92DF92EF92FF920F93AF
:100900001F93CF93DF938B01FB0184809FEF980DA2
:10091000903128F5912CF1E08F1A9108880C991CE0
:10092000880C991CEB01612C712CE82EF12C5401E0
:10093000AE0CBF1C6991C501860D971D0E94760201
:100940008FEF681A780A93E06916710499F7C40169
:100950008E0D9F1DF801638103960E947602DF9140
:10096000CF911F910F91FF90EF90DF90CF90BF90AC
:10097000AF909F908F907F906F9008955F926F924D
:100980007F928F929F92AF92BF92CF92DF92EF921F
:10099000FF920F931F93CF93DF93CDB7DEB72A97C4
:1009A0000FB6F894DEBF0FBECDBF562E9FEF960F49
:1009B000903108F0512C652C712C91E0691A710866
:1009C000660C771C660C771C8E010A5F1F4F4E0168
:1009D000E9E08E0E911CE82EF12C5701A01AB10A05
:1009E000A60CB71CC501800F911F0E946F02F80171
:1009F00081938F01E815F905A9F7C3018E0D9F1D9D
:100A000003960E946F0289875A8685E0FE0136961A
:100A1000DE01119601900D928A95E1F729813A81C4
:100A20004B815C816D8170E080E090E02A960FB68A
:100A3000F894DEBF0FBECDBFDF91CF911F910F9114
:100A4000FF90EF90DF90CF90BF90AF909F908F90EE
:100A50007F906F905F900895DF92EF92FF920F93D7
:100A60001F93CF93DF93D82E14161506BCF4C62F10
:100A7000D72F7A018FEFE81AF80A01E010E0602F13
:100A80008D2D0E94BE04288339834A835B836C8347
:100A90000F5F1F4F25960E151F0589F7DF91CF9128
:100AA0001F910F91FF90EF90DF900895AF92BF924A
:100AB000DF92EF92FF920F931F93CF93DF93CDB707
:100AC000DEB7C055D1090FB6F894DEBF0FBECDBF5B
:100AD000D82E7B0140E150E0BE016F5F7F4F0E9446
:100AE0002C05F70114829381FE01349620E030E05A
:100AF0008081891780F4F901EE0FFF1FEE0FFF1FB1
:100B00002E0F3F1FFE01E20FF31F8581F701848343
:100B10008823A1F107C02F5F3F4F35962031310563
:100B200039F72EC0B7018D2D0E947504F70184811D
:100B300090E0019780319105F4F48C01000F111FB2
:100B4000000F111F080F191F0C0F1D1F0B5F1F4FE8
:100B50005E01F5E5AF0EB11CF80180818F5F8083E7
:100B6000B801645071098D2D0E9475040B5F1F4FF1
:100B70000A151B0589F7F701848103C080E001C0D5
:100B800080E0C05BDF4F0FB6F894DEBF0FBECDBF75
:100B9000DF91CF911F910F91FF90EF90DF90BF9069
:100BA000AF9008950F931F93CF93DF9300D000D0A1
:100BB0001F92CDB7DEB7082F8EE4898391E49A8324
:100BC0008B831C8211E01D83BE016F5F7F4F802FDE
:100BD0000E9475041F5F1131B1F70F900F900F90B5
:100BE0000F900F90DF91CF911F910F91089580E0AA
:100BF0000E94D20580E80E94D20580E40E94D205BE
:100C00000895AF92BF92CF92DF92EF92FF920F932F
:100C10001F93CF93DF93CDB7DEB7C056D1090FB680
:100C2000F894DEBF0FBECDBF40E150E0BE016F5F64
:100C30007F4F0E942C0580E090E00E94060C8E0100
:100C40000B5F1F4FE12CF12C0F2EFAE6AF2EF1E0D7
:100C5000BF2EF02D6E0121E5C20ED11CF801319797
:100C600080811F928F93319780811F928F9331974C
:100C700080811F928F93319780811F928F93F8010B
:100C800080811F928F93BF92AF92DF92CF920E948A
:100C90001419A701B60180E090E00E94660BFFEFF7
:100CA000EF1AFF0A0B5F1F4F0FB6F894DEBF0FBE9F
:100CB000CDBF97E0E916F10489F680E090E00E944C
:100CC000060B09C0EFEFFFE721E0E150F0402040C4
:100CD000E1F700C000C00E942B098111F3CFC05A78
:100CE000DF4F0FB6F894DEBF0FBECDBFDF91CF91BF
:100CF0001F910F91FF90EF90DF90CF90BF90AF903A
:100D0000089580E00E940106089580E40E94010693
:100D1000089580E80E94010608958F929F92AF92F5
:100D2000BF92CF92DF92EF92FF920F931F93CF93D8
:100D3000DF93CDB7DEB765970FB6F894DEBF0FBE71
:100D4000CDBF982E81E489838A838B836C8380E076
:100D500090E00E94060C8C811F928F9387E791E0B0
:100D60009F938F938E010A5F1F4F1F930F930E94D3
:100D7000141942E050E0B80180E090E00E94660B58
:100D80000E942B09882E0F900F900F900F900F90BC
:100D90000F90E12CF12C0F2EF3E0AF2EB12CF02DA3
:100DA0000F2EF1E8CF2EF1E0DF2EF02D2FEF8FE7A1
:100DB00091E0215080409040E1F700C000C00E94C7
:100DC0002B09881669F10E942B09882E21E08217D1
:100DD00081F0821738F082E0881679F093E0891666
:100DE000B1F01EC0C7010296B5010E94C7167C0172
:100DF00017C02FEFE21AF20A13C0E1E0F0E0EC0FA7
:100E0000FD1FEE0DFF1D80818F5F808309C0E1E033
:100E1000F0E0EC0FFD1FEE0DFF1D808181508083FF
:100E20008B811F928F938A811F928F9389811F924A
:100E30008F93DF92CF921F930F930E941419A501F5
:100E4000B80180E090E00E94660B44E050E06EE85C
:100E500071E080E090E00E94660B97012A5F3F4FAF
:100E6000220F331F220F331F220F331F44E050E0A5
:100E700069E971E080E090E00E94B40B80E090E0CE
:100E80000E94060B0FB6F894DEBF0FBECDBF93E0F5
:100E9000E916F1040CF48ACFBE016F5F7F4F892DF4
:100EA0000E94560565960FB6F894DEBF0FBECDBF03
:100EB000DF91CF911F910F91FF90EF90DF90CF9036
:100EC000BF90AF909F908F900895CF92DF92EF9256
:100ED000FF920F931F93CF93DF93CDB7DEB76A973F
:100EE0000FB6F894DEBF0FBECDBF8093DC02109228
:100EF000DD0292E0998391E09A838B83CE01019683
:100F00000E94400880E090E00E94060C42E050E021
:100F10006BE971E080E090E00E94660B0F2EFCEA26
:100F2000CF2EF1E0DF2EF02D0F2EF8EBEF2EF1E0BB
:100F3000FF2EF02D8E01055F1F4F2DC02FEF8FE785
:100F400091E0215080409040E1F700C000C08091C6
:100F5000DC021F928F93DF92CF920E9400190E94B1
:100F6000DC028091DD021F928F93FF92EF921F931C
:100F70000F930E94141944E050E0B80180E090E023
:100F80000E94660B80E090E00E94060B0FB6F8947A
:100F9000DEBF0FBECDBF8091DC02813079F280913F
:100FA000DC02823059F28091DC02833039F26091A8
:100FB000DD0280E00E948D066A960FB6F894DEBFCF
:100FC0000FBECDBFDF91CF911F910F91FF90EF909A
:100FD000DF90CF90089581E00E946507089582E038
:100FE0000E946507089583E00E9465070895809335
:100FF000DC0208958093DD02089580B7806280BF8F
:1010000085B7806885BF089580E895E20E94650CE9
:101010000E94FD070E94D80A0E9480020E942708B1
:101020000E944113FDCF83709078992324F4019797
:101030008C6F9F6F01968C5F8093001485EF90E01A
:101040000197F1F700C000008091001408950E94FC
:101050006D0A0E94530A40E060EE8FE00E94BE0AD3
:101060004FEF63E08BE20E94BE0A8EE00E945B0AB3
:10107000282F207E81E090E011F480E090E0089538
:101080001F93CF93DF93EC0148814295440F407E3C
:1010900060EE82E30E94BE0A4881469546954695D9
:1010A0006FEF81E30E94BE0A698185E30E94890A8D
:1010B000698185E30E94890A8981882369F010E0AB
:1010C000FE01E10FF11D628186E3810F0E94890A12
:1010D0001F5F89811817A0F380E00E949D0ADF91AD
:1010E000CF911F9108951F93CF93DF93EC018CE272
:1010F0000E945B0A80FF2CC085E60E945B0A898300
:1011000082E60E945B0A182F1295169517701883B5
:1011100081E60E945B0A880F880F880F180F1883DA
:101120008981882369F010E086E6810F0E945B0ABE
:10113000FE01E10FF11D82831F5F89811817A0F363
:1011400040E061E08CE20E94BE0A80E090E002C0D4
:1011500081E090E0DF91CF911F910895CF93DF93CD
:1011600081E090E00E941308EC0180E090E00E9492
:101170001308FC0144E64C9FC0014D9F900D1124C3
:101180002FEF30E0B9010E94C716C62F4E9FC00155
:101190004F9F900D1124B9010E94C716762F6C2F16
:1011A00080E090E0DF91CF910895CF92DF92EF92AF
:1011B000FF920F931F93CF93DF938C01EB01BC0140
:1011C000882777FD8095982F0E94B0156B017C01D0
:1011D000E894F7F820E030E048E452E4C701B601B3
:1011E0000E941115882384F4BE01882777FD80951D
:1011F000982F0E94B0159F7720E030E048E452E439
:101200000E9411158823DCF0BE01882777FD8095A8
:10121000982F0E94B0159B01AC015F77C701B60102
:101220000E94111588232CF41C161D0654F482E02C
:1012300009C081E0101611062CF080E003C084E0A4
:1012400001C083E0DF91CF911F910F91FF90EF904C
:10125000DF90CF900895CF92DF92EF92FF92CF93DD
:1012600082E090E00E941308C0900A01D0900B0128
:10127000E0900C01F0900D01BC01882777FD80956E
:10128000982F0E94B015A70196010E94AC1420E08F
:1012900030E048EC52E40E946416A70196010E94D7
:1012A00015150E947D15C62F83E090E00E9413085B
:1012B000C0900E01D0900F01E0901001F09011014C
:1012C000BC01882777FD8095982F0E94B015A70153
:1012D00096010E94AC1420E030E048EC52E40E94F9
:1012E0006416A70196010E9415150E947D15F62E21
:1012F0006C2F772767FD70958F2D992787FD909527
:101300000E94D5086F2D7C2F90E0CF91FF90EF9039
:10131000DF90CF900895CF93DF931F92CDB7DEB7C4
:1013200028EE33E0A901481B590BCA0168EC70E0B4
:101330000E94C716605D698380E090E00E94060C01
:1013400040E050E062EC71E080E090E00E94660BCB
:1013500042E050E060ED71E080E090E00E94660BBA
:1013600020E630E042E050E0BE016F5F7F4F80E05A
:1013700090E00E94B40B80E090E00E94060B0F907A
:10138000DF91CF910895BF92CF92DF92EF92FF92BB
:101390000F931F93CF93DF93E12CF12C1FE70FE7FF
:1013A000CFE7DFE70F2EF8ECCF2ED12CF02D82E027
:1013B00090E00E941308B82E83E090E00E9413088A
:1013C000BC1608F4CB2D811708F4182F081708F461
:1013D000082FDB1508F4DB2D8FEF97E10197F1F76C
:1013E00000C00000C701B6010E94C716892B19F47E
:1013F000C7010E948B099FEFE91AF90A88EEE816E7
:1014000083E0F806A1F66D2F70E06C1B7109882748
:1014100077FD8095982F0E94B01520E030E040E0E5
:101420005FE30E94641660930A0170930B0180933E
:101430000C0190930D01602F70E0611B71098827EA
:1014400077FD8095982F0E94B01520E030E040E0B5
:101450005FE30E94641660930E0170930F01809306
:101460001001909311011F920F931F921F931F92CF
:10147000DF931F92CF938CED91E09F938F930E9407
:1014800000198DB79EB70A960FB6F8949EBF0FBE8F
:101490008DBFDF91CF911F910F91FF90EF90DF9063
:1014A000CF90BF9008950E94730480EC0E94650461
:1014B0000E9471040895CF93C82F0E94730483E0A3
:1014C0000E946A048C2F0E946A040E946D04C82F37
:1014D0000E9471048C2FCF91089580E895E20E94BC
:1014E000650C0E9460040E94530A8EE00E945B0A11
:1014F000807E803859F088EE91E09F938F930E9410
:1015000000190F900F9081E090E0089580E090E046
:101510000895CF93DF93D82FC62F0E94730482E0E3
:101520000E946A048D2F0E946A048C2F0E946A0414
:101530000E947104DF91CF910895CF93C82F0E942C
:1015400073048C2F8370813051F028F0823059F071
:10155000833069F00FC081E80E946A040BC082E802
:101560000E946A0407C084E80E946A0403C087E8F6
:101570000E946A040E947104CF9108951F93CF9333
:10158000DF93182FD62FC42F0E94730485E00E948A
:101590006A04812F0E946A048D2F0E946A048C2F96
:1015A0000E946A040E947104DF91CF911F910895F7
:1015B000E0E0F0E18EEA808381EA80838AED808337
:1015C00082E1808388EC808388EA80838FE3808354
:1015D00085ED808380E8808381E8808380E5808357
:1015E00089ED808381E2808380E2808382E0808352
:1015F0008BED808380E380838DEA8083108284EA90
:10160000808386EA80838FEA80830895AF92BF92B9
:10161000CF92DF92EF92FF920F931F93CF93DF93BE
:101620005C01C0E0D0E0E12CF12CC12C6894DD24F9
:10163000D4F800E012E1CE019E012F773327232B4F
:1016400039F420EB2E0DF6012083FFEFEF1AFF0A8D
:101650008A0D9B1D0E94560CF80180832196C115AE
:10166000F4E0DF0741F7DF91CF911F910F91FF90D9
:10167000EF90DF90CF90BF90AF9008951F920F92A0
:101680000FB60F9211242F933F934F935F936F9355
:101690007F938F939F93AF93BF93EF93FF9380E0DC
:1016A00090E00E94060B1DBC1CBCFF91EF91BF9106
:1016B000AF919F918F917F916F915F914F913F91EA
:1016C0002F910F900FBE0F901F901895AF92BF9261
:1016D000CF92DF92EF92FF920F931F93CF93DF93FE
:1016E0006A01D694DC2CCC24D794C794C80ED91E9A
:1016F000FB01E080EE2069F15B01FFEFAF1ABF0A4A
:1017000015C0CE01F701E80FF91F6491EC01219695
:1017100070E00E945A0CC017D10799F748E0C40E38
:10172000D11CF501E1905F01EE2099F08601085F80
:101730001F4FF12CEE0CFF1CEE0CFF1CEE0CFF1CDF
:1017400097012C193D09C601A90148555F4F7A013F
:10175000D9CFDF91CF911F910F91FF90EF90DF9044
:10176000CF90BF90AF900895EF92FF920F931F9389
:10177000CF93DF937B018A011695102F00271795D1
:101780000795800F911F8C01020F131FC0E0D0E05E
:10179000D701EC91F0E0B097EE0FFF1FEE0FFF1FA7
:1017A000EE0FFF1FEC0FFD1FE855FE4F649170E038
:1017B000CE01800F911F0E945A0C2196C830D1058E
:1017C00039F7DF91CF911F910F91FF90EF9008951E
:1017D0000F931F93CF93DF938B011695102F002744
:1017E00017950795080F191FC0E0D0E060E070E082
:1017F000CE01800F911F0E945A0C2196C038D1054E
:10180000A9F7DF91CF911F910F9108950F931F9327
:10181000CF93DF938C01C0E0D0E0BE01C8010E94ED
:10182000E80B2196C830D105C1F7DF91CF911F9108
:101830000F9108950F931F93CF93DF93EA019A01BD
:10184000DD2314F4295F3F4F890115950795159500
:101850000795159507951695102F0027179507954D
:10186000080F191F060F171FC8010E94560CAE0162
:1018700047705078552334F441505109486F5F6FD9
:101880004F5F5F4F21E030E0B90102C0660F771F64
:101890004A95E2F7AB01482B642F70E0C8010E9423
:1018A0005A0CDF91CF911F910F910895985EFC0122
:1018B00080810895FC01F85E8081608308955D9BBE
:1018C000FECF8CB980E090E008959C0140E050E0AC
:1018D00060E070EB84E090E00E94DB16215031095B
:1018E00030BD29B98AB188618AB980B5866880BD62
:1018F00060E070E08FE59CE00E94B51880E090E029
:10190000089580E090E00E94060C0FE110E0CFE324
:10191000D0E00E942B09813071F058F0823019F02C
:10192000833021F009C00150110906C00F5F1F4F1D
:1019300003C0219701C02196A801BE0180E090E07C
:101940000E941A0C80E090E00E94060B2FEF8FE7B8
:1019500091E0215080409040E1F700C000C0D9CF15
:10196000CF92DF92EF92FF92CF93DF93EB01FC01D6
:10197000C280D380E480F580882777FD8095982FFA
:101980000E94B0159B01AC01C701B6010E94601610
:101990008823BCF0BE01605F7F4F882777FD80956C
:1019A000982F0E94B0159B01AC01D1E0C0E0C701A7
:1019B000B6010E94111588230CF0D0E08D2F9C2FCA
:1019C00002C080E090E0DF91CF91FF90EF90DF9038
:1019D000CF900895CF92DF92EF92FF920F931F93D3
:1019E000CF93DF93EC018B016E817F81882777FD98
:1019F0008095982F0E94B0156B017C01B801882753
:101A000077FD8095982F0E94B0159B01AC016A81EB
:101A10007B818C819D810E94AC1420E030E040E00D
:101A200051E40E94AC1420E030E040E05EE30E940C
:101A3000641620E030E044E352E40E9464169B0107
:101A4000AC01C701B6010E94AD140E947D156E3233
:101A500071052CF08DE290E09F838E830BC0633D77
:101A60004FEF74072CF48DE290E09F838E8302C0C9
:101A70007F836E83DF91CF911F910F91FF90EF9045
:101A8000DF90CF900895CF93DF93EC010E94A518CB
:101A900081709078992324F401978E6F9F6F01963F
:101AA000998788870E94A5186BE570E00E94C71689
:101AB0008D979F838E838FE390E099838883DF9156
:101AC000CF910895CF92DF92EF92FF920F931F93E1
:101AD000CF93DF93EC010E811F81B801882777FD3A
:101AE0008095982F0E94B01520E030E044E352E446
:101AF0000E9415152A813B814C815D810E94AD14A5
:101B00006B017C0120E030E04CE752E40E9460165B
:101B10001816D4F420E030E04CE752E4C701B601D7
:101B20000E94AC149B01AC0160E070E08CE792E491
:101B30000E94AC146A837B838C839D8311950195ED
:101B400011091F830E831BC020E030E0A901C701EB
:101B5000B6010E941115882374F4F7FAF094F7F88F
:101B6000F094CA82DB82EC82FD8211950195110905
:101B70001F830E8304C0CA82DB82EC82FD828885CB
:101B80009985019731F48881998101969983888399
:101B900005C088819981019799838883DF91CF91CE
:101BA0001F910F91FF90EF90DF90CF900895CF930A
:101BB000DF93EC010E94AE0879838A839B834FE216
:101BC000469FC001112424E630E0B9010E94C716E7
:101BD00068838981489FC0011124B9010E94C716FA
:101BE0006983DF91CF910895CF92DF92EF92FF92B8
:101BF0000F931F93CF93DF93CDB7DEB72A970FB61E
:101C0000F894DEBF0FBECDBF09831A832B833C83BC
:101C10004D835E8380E090E00E94060C00E010E0BF
:101C2000A8014E0D5F1D61E070E080E090E00E9431
:101C30001A0CA8014C0D5D1D6FE770E080E090E08C
:101C40000E941A0C0F5F1F4F0031110549F700E089
:101C500010E020E030E0A9016B817C818D819E81C4
:101C60000E94AD140E947D1529813A81200F311FF9
:101C7000AB01B90180E090E00E941A0C20E030E056
:101C800040E85FE36B817C818D819E810E94AD1471
:101C90000E947D1529813A81200F311FAB01B901C6
:101CA00080E090E00E941A0C0F5F1F4F0230110578
:101CB00081F680E090E00E94060B2A960FB6F89419
:101CC000DEBF0FBECDBFDF91CF911F910F91FF906F
:101CD000EF90DF90CF900895AF92BF92CF92DF92B6
:101CE000EF92FF920F931F93CF93DF93CDB7DEB7A1
:101CF0002E970FB6F894DEBF0FBECDBFCE01019672
:101D00000E94430DAA24A394B12CCE010B960E94ED
:101D1000D70D09811A810E37110594F0EC84F12C4E
:101D2000B701CE0101960E94B00C8C010097A9F179
:101D30001A861986B701CE0101960E94EA0C13C0DB
:101D40000130110581F4EB84F12CB701CE0101962D
:101D50000E94B00C892B09F1BA86A986B701CE0181
:101D600001960E94EA0CCE0101960E94620DCC847D
:101D7000D12CEB84F12C09811A812B813C814D817E
:101D80005E816F81788589859A850E94F40D89E945
:101D900099E00197F1F700C0B8CFC8012E960FB6B1
:101DA000F894DEBF0FBECDBFDF91CF911F910F9191
:101DB000FF90EF90DF90CF90BF90AF9008950F937A
:101DC0001F93CF93DF9300D01F92CDB7DEB7082FBC
:101DD000162F80E090E00E94060C005D09838DE2E2
:101DE0008A83105D1B8328E330E042E050E0BE01AF
:101DF0006F5F7F4F80E090E00E94B40B20E430E002
:101E000042E050E0BE016E5F7F4F80E090E00E94B4
:101E1000B40B28E430E042E050E0BE016D5F7F4F3C
:101E200080E090E00E94B40B80E090E00E94060BFE
:101E30000F900F900F90DF91CF911F910F91089508
:101E40000F931F93CF93DF938C0180E090E00E946B
:101E5000060CC0E0D0E0C0FF11C042E050E0B80185
:101E600080E090E00E94660B8FEF9FE724E08150B6
:101E700090402040E1F700C0000009C08FEF9FE7CD
:101E800024E0815090402040E1F700C000002196FE
:101E9000CA30D10501F780E090E00E94060BDF9187
:101EA000CF911F910F91089580E090E00E94060C61
:101EB00000E010E0C0E0D0E0B801CE010E94DF0EEB
:101EC0002FEF8FEF9DE1215080409040E1F700C05F
:101ED00000000E946C0E892B11F4219602C00F5F46
:101EE0001F4FC530D10529F48CE192E00E94200FEC
:101EF000E3CF0530110501F78EE292E00E94200F3A
:101F0000DBCFFC01009781F08481958186179707CC
:101F100029F4868197818417950749F00190F08113
:101F2000E02D309789F706C080E090E0089581E0C9
:101F300090E0089580E090E008950F931F93CF9371
:101F4000DF93EC018B010E94A5188F739078992381
:101F500024F40197806C9F6F0196998388830E9477
:101F6000A518AC014F715078552334F441505109F4
:101F7000406E5F6F4F5F5F4F5B834A8368817981FB
:101F8000C8010E94810F892BF1F6DF91CF911F913B
:101F90000F910895CF92DF92EF92FF920F931F93CC
:101FA000CF93DF938C017B0180E090E00E94060CD0
:101FB0000115110509F459C0C12CD12C2AC0F80112
:101FC00046815781440F551F64817581660F771FC5
:101FD0006C0F7D1F8C2D9D2D0E941A0CF8014681DF
:101FE0005781440F551F4F5F5F4F64817581660FA6
:101FF000771F6C0F7D1F8C2D9D2D0E941A0C219632
:10200000C230D105E1F6F8010081118101151105F9
:1020100061F1CC2DDD2DD3CFF70142815381440FE7
:10202000551F60817181660F771F6C0F7D1F80E0E7
:1020300090E00E941A0CF70142815381440F551F12
:102040004F5F5F4F60817181660F771F6C0F7D1F3F
:1020500080E090E00E941A0C2196C230D105E1F692
:1020600080E090E00E94060B03C0C0E0D0E0D4CF37
:10207000DF91CF911F910F91FF90EF90DF90CF9064
:102080000895AF92BF92CF92DF92EF92FF920F939B
:102090001F93CF93DF9300D000D0CDB7DEB788E099
:1020A00090E00E9430177C0180E290E0D701159605
:1020B0009C938E93149780E190E017969C938E9357
:1020C000169711961C921E9213961C921E921297AE
:1020D00067016894AA24A2F8B12C88E090E00E94DD
:1020E00030178C01F601848195810196D8011596EF
:1020F0009C938E9314978681978117969C938E93C9
:1021000016971196DC92CE9213961C921E921297FD
:1021100013830283B1E0AB1AB108A114B10411F02A
:102120006801DBCFB801CE0101960E949D0F80E0CF
:1021300090E00E94060CDD24D39497C00E942B09E6
:10214000C82EE4E08E17F1F0F3E08F1304C022E014
:10215000D21210C0B9C082E0C81206C093E0D916EE
:1021600009F4CDC0DC2C0EC0C11004C0A1E0DA120D
:1021700019C1FCC0B1E0CB1204C0DD2009F4DAC003
:102180002CC1DC2C88E090E00E943017FC01D801C3
:1021900014968D919C9115979583848316968D91B5
:1021A0009C911797978386831183008313821282F1
:1021B0001396FC93EE931297B1E0DB1609F1DB1650
:1021C000A8F022E0D21621F083E0D81225C007C083
:1021D000868197810197978386838F011EC08681B0
:1021E00097810196978386838F0117C0CD2C248118
:1021F000358121503109358324838F01DC2C0DC0BA
:102200008F01D80114968D919C9115970196159682
:102210009C938E93149701C08F014B815C816981DF
:102220007A81C8010E94810F892B31F0B801CE015B
:1022300001960E949D0F0AC0F701A280B380D501CC
:102240001D921C92C7010E94C8177501BE016F5FE5
:102250007F4FC8010E94CA0FBFEFEFE7F1E0B15016
:10226000E040F040E1F700C000C0D80116964D9163
:102270005C91179714966D917C9115978D919C9117
:102280000E94810F892B09F459CF0E151F0581F08B
:10229000A12CB12CF801C080D180C8010E94C817C0
:1022A000FFEFAF1ABF0AEC14FD0429F08601F2CF4C
:1022B0006801A12CB12CC6010E94C8176CEF6A0DF1
:1022C00080E40E948D06A6C088E090E00E9430174E
:1022D000FC01D80114968D919C9115979583848368
:1022E00016968D919C91179797838683118300830F
:1022F000138212821396FC93EE93129769CF88E0B3
:1023000090E00E943017FC01D80114968D919C91A9
:1023100015979583848316968D919C911797978333
:10232000868311830083138212821396FC93EE93AB
:10233000129755CF88E090E00E943017FC01D80139
:1023400014968D919C9115979583848316968D9103
:102350009C9117979783868311830083138212823F
:102360001396FC93EE931297CD2C41CF88E090E02A
:102370000E943017FC01D80114968D919C911597FD
:102380009583848316968D919C9117979783868366
:1023900011830083138212821396FC93EE9312979B
:1023A0008F012FCF88E090E00E943017FC01D80108
:1023B00014962D913C9115973583248316962D9173
:1023C0003C911797378326831183008313821282EF
:1023D00013969C938E9312970ACF88E090E00E9408
:1023E0003017FC01D80114968D919C911597958317
:1023F000848316968D919C9117979783868311837A
:102400000083138212821396FC93EE9312978F012E
:10241000DC2CF7CE0F900F900F900F90DF91CF91A3
:102420001F910F91FF90EF90DF90CF90BF90AF90F2
:1024300008952F923F924F925F926F927F928F9268
:102440009F92AF92BF92CF92DF92EF92FF920F9343
:102450001F93CF93DF9300D01F92CDB7DEB77C01DF
:1024600080E090E00E94060CD7016D917C9140E0E5
:1024700050E080E090E00E94660BF7018489958926
:10248000181619060CF06DC0C70104969B838A8349
:10249000CC24C394D12C6894222423F8312CAA8113
:1024A000BB816D907D90BB83AA83D301ED91FC919C
:1024B00080818983F70140AD51ADC601019748176E
:1024C000590759F44F5F5F4F20E030E06FE372E04F
:1024D00080E090E00E94B40B09C020E030E0A6014B
:1024E00067E971E080E090E00E94B40B8981882365
:1024F00059F16894AA24A3F8B12C88248394912CD0
:102500001EC0242D352DA601BE016F5F7F4F80E0D8
:1025100090E00E94B40B015011090115110589F7D3
:10252000D301ED91FC91E80DF91D80818983BFEF06
:102530008B1A9B0AE8E0AE0EB11C882329F04A2CC6
:102540005B2C022D132DDDCFC601FFEFCF1ADF0A62
:10255000D70154962D913C915597821793070CF40F
:102560009ECFF70186A997A9181619060CF06FC01F
:102570003701F6E16F0E711CC12CD12C68944424F4
:1025800043F8512CD3018D909D903D01F401808141
:102590008983D701D8968D919C91D99754964D9166
:1025A0005C9155974C0D5D1D8417950761F4AC0146
:1025B0004F5F5F4F20E030E06FE372E080E090E03B
:1025C0000E94B40B0AC04F5F5F4F20E030E067E924
:1025D00071E080E090E00E94B40B8981882359F17A
:1025E000BFEF8B1A9B0A6894AA24A3F8B12C1EC0D3
:1025F000F701448955894C0D5D1D4F5F5F4F222DBA
:10260000332DBE016F5F7F4F80E090E00E94B40BDE
:10261000015011090115110559F7D4018D914D0192
:102620008983B8E0AB0EB11C882329F02A2C3B2CFF
:10263000042D152DDDCFEFEFCE1ADE0AD701D69689
:102640008D919C91D797C816D9060CF49BCF80E04A
:1026500090E00E94060B0F900F900F90DF91CF91AA
:102660001F910F91FF90EF90DF90CF90BF90AF90B0
:102670009F908F907F906F905F904F903F902F90A2
:102680000895CF93DF93CDB7DEB7CC55D1400FB6C9
:10269000F894DEBF0FBECDBF0F2EFAE3FF2EF02D54
:1026A0008E010F5F1F4FD801EF2D1D92EA95E9F7BC
:1026B00081E492E09A83898384E090E09E8B8D8B05
:1026C000FE01FB96DF01EF2C1D92EA94E9F78BE403
:1026D00092E09CAF8BAF1EAF0DAF83E090E0E3962E
:1026E0009FAF8EAFE397FA87E98725E836E0A39698
:1026F0003FAF2EAFA39729E836E0A5963FAF2EAFA8
:10270000A59721E836E0A7963FAF2EAFA79765E5DE
:1027100072E063967FAF6EAF639740E652E06596D6
:102720005FAF4EAF65972BE532E067963FAF2EAFB8
:102730006797FA96DF01EF2C1D92EA94E9F7A5E678
:10274000B2E0B183A08313830283A1E0B0E0B58B34
:10275000A48B97AB86ABA1E8BCE0B7A3A6A3A1E48A
:10276000B0E1B1A7A0A7A4E5BFE0B3A7A2A7AFE6D9
:10277000B2E0B78BA68B718F608F538F428FFE8331
:10278000ED83BE0161557F4FDB01EF2C1D92EA9472
:10279000E9F7DB0111963C932E931396FC93EE938D
:1027A0001297D7969C938E93D6978FEE97E0979635
:1027B0009C938E9396978BEE97E099969C938E932D
:1027C000989783EF97E09B969C938E939A9784E7D4
:1027D00092E057969C938E93569783E892E0599691
:1027E0009C938E9358978FE892E05B969C938E9380
:1027F0005A9775836483EC58FF4FDF01EF2C1D92CD
:10280000EA94E9F78CE992E0918380831383028351
:1028100082E090E097AB86AB23EC39E037A326A3A8
:1028200027EF35E031A720A725EA32E0378B268B4A
:1028300023EB32E0318F208FFC87EB87FA96DF01A4
:102840001D92FA94E9F723EC32E03183208313835D
:10285000028397AB86AB85E294E097A386A386E5D7
:1028600094E091A780A78BEC92E0978B868B80ED0C
:1028700092E0918F808FF887EF836894AA24A2F862
:10288000F801C6A8D7A8E488F5880E942B09B82EBD
:10289000A81609F453C0B6016E0D7F1DF1E08F1725
:1028A00079F18F1718F16894EE24E1F88E1521F074
:1028B00023E0821779F042C0D801D8968D919C917F
:1028C000D9970197860F971F0E94C716F80191AFFD
:1028D00080AF34C0D801D8968D919C91D99701963C
:1028E0000E94C716F80191AF80AF28C0D801129698
:1028F0002D913C9113972115310501F189011EC0DD
:10290000F80120AD31AD44895589241735074CF4C1
:102910002E5F3F4F220F331FE20FF31F0081118103
:102920000DC0241B350B2D5E3F4FF901EE0FFF1F2D
:10293000E00FF11F0190F081E02D0995C8010E9480
:102940001912FFEF2FE741E0F15020404040E1F73E
:1029500000C000C0AB2C94CF5058BB27AA270ED084
:1029600075C166D130F06BD120F031F49F3F11F486
:102970001EF45BC10EF4E095E7FB51C1E92F77D15E
:1029800080F3BA17620773078407950718F071F48C
:102990009EF58FC10EF4E0950B2EBA2FA02D0B01E2
:1029A000B90190010C01CA01A0011124FF27591B94
:1029B00099F0593F50F4503E68F11A16F040A22F9A
:1029C000232F342F4427585FF3CF4695379527950B
:1029D000A795F0405395C9F77EF41F16BA0B620B0A
:1029E000730B840BBAF09150A1F0FF0FBB1F661F51
:1029F000771F881FC2F70EC0BA0F621F731F841F94
:102A000048F4879577956795B795F7959E3F08F0B9
:102A1000B3CF9395880F08F09927EE0F9795879578
:102A20000895D9D008F481E008950CD00FC107D1E2
:102A300040F0FED030F021F45F3F19F0F0C05111AA
:102A400039C1F3C014D198F39923C9F35523B1F3D5
:102A5000951B550BBB27AA2762177307840738F00D
:102A60009F5F5F4F220F331F441FAA1FA9F333D06C
:102A70000E2E3AF0E0E830D091505040E695001C20
:102A8000CAF729D0FE2F27D0660F771F881FBB1FDC
:102A9000261737074807AB07B0E809F0BB0B802DB6
:102AA000BF01FF2793585F4F2AF09E3F510568F002
:102AB000B6C000C15F3FECF3983EDCF38695779596
:102AC0006795B795F7959F5FC9F7880F911D969504
:102AD000879597F90895E1E0660F771F881FBB1F60
:102AE000621773078407BA0720F0621B730B840B0D
:102AF000BA0BEE1F88F7E095089504D06894B111E1
:102B0000D9C00895BCD088F09F5790F0B92F99276D
:102B1000B751A0F0D1F0660F771F881F991F1AF0E8
:102B2000BA95C9F712C0B13081F0C3D0B1E00895B1
:102B3000C0C0672F782F8827B85F39F0B93FCCF332
:102B4000869577956795B395D9F73EF490958095DE
:102B5000709561957F4F8F4F9F4F0895E89409C0FE
:102B600097FB3EF490958095709561957F4F8F4FC0
:102B70009F4F9923A9F0F92F96E9BB279395F695D6
:102B8000879577956795B795F111F8CFFAF4BB0F54
:102B900011F460FF1BC06F5F7F4F8F4F9F4F16C0B8
:102BA000882311F096E911C0772321F09EE8872F42
:102BB000762F05C0662371F096E8862F70E060E0FE
:102BC0002AF09A95660F771F881FDAF7880F969577
:102BD000879597F90895990F0008550FAA0BE0E81B
:102BE000FEEF16161706E807F907C0F012161306CF
:102BF000E407F50798F0621B730B840B950B39F40F
:102C00000A2661F0232B242B252B21F408950A2674
:102C100009F4A140A6958FEF811D811D089597F9B4
:102C20009F6780E870E060E008959FEF80EC089572
:102C300000240A941616170618060906089500249B
:102C40000A9412161306140605060895092E039415
:102C5000000C11F4882352F0BB0F40F4BF2B11F489
:102C600060FF04C06F5F7F4F8F4F9F4F089557FDE8
:102C70009058440F551F59F05F3F71F04795880FEA
:102C800097FB991F61F09F3F79F087950895121681
:102C900013061406551FF2CF4695F1DF08C016162D
:102CA00017061806991FF1CF8695710561050894DE
:102CB0000895E894BB2766277727CB0197F90895F5
:102CC0008ADF08F48FEF08950BD0C0CFB1DF28F072
:102CD000B6DF18F0952309F0A2CFA7CF1124EACFD1
:102CE000C6DFA0F3959FD1F3950F50E0551F629F6B
:102CF000F001729FBB27F00DB11D639FAA27F00D55
:102D0000B11DAA1F649F6627B00DA11D661F829F7B
:102D10002227B00DA11D621F739FB00DA11D621F60
:102D2000839FA00D611D221F749F3327A00D611D7D
:102D3000231F849F600D211D822F762F6A2F11245F
:102D40009F5750408AF0E1F088234AF0EE0FFF1FB2
:102D5000BB1F661F771F881F91505040A9F79E3FE9
:102D6000510570F05CCFA6CF5F3FECF3983EDCF3EB
:102D7000869577956795B795F795E7959F5FC1F726
:102D8000FE2B880F911D9695879597F9089597FBCF
:102D9000072E16F4009407D077FD09D00E94FA168A
:102DA00007FC05D03EF4909581959F4F089570954E
:102DB00061957F4F0895052E97FB1EF400940E94A5
:102DC000F21657FD07D00E940E1707FC03D04EF4F1
:102DD0000C94F21650954095309521953F4F4F4FEA
:102DE0005F4F089590958095709561957F4F8F4FB7
:102DF0009F4F0895AA1BBB1B51E107C0AA1FBB1F11
:102E0000A617B70710F0A61BB70B881F991F5A9576
:102E1000A9F780959095BC01CD010895A1E21A2EE5
:102E2000AA1BBB1BFD010DC0AA1FBB1FEE1FFF1F6E
:102E3000A217B307E407F50720F0A21BB30BE40BBE
:102E4000F50B661F771F881F991F1A9469F7609505
:102E50007095809590959B01AC01BD01CF010895BF
:102E6000CF93DF938230910510F482E090E0E091FF
:102E7000E002F091E10220E030E0A0E0B0E0309725
:102E800039F14081518148175907B8F0481759075F
:102E900071F482819381109729F013969C938E93FD
:102EA00012972CC09093E1028093E00227C0211575
:102EB000310531F04217530718F0A901DB0101C0B9
:102EC000EF019A01BD01DF010280F381E02DD7CF30
:102ED00021153105F9F0281B390B2430310580F418
:102EE0008A819B816115710521F0FB0193838283A7
:102EF00004C09093E1028093E002FE01329644C048
:102F0000FE01E20FF31F819391932250310939831F
:102F100028833AC02091DE023091DF02232B41F456
:102F200020910201309103013093DF022093DE02F1
:102F300020910001309101012115310541F42DB797
:102F40003EB74091040150910501241B350BE091DF
:102F5000DE02F091DF02E217F307A0F42E1B3F0B15
:102F60002817390778F0AC014E5F5F4F24173507FB
:102F700048F04E0F5F1F5093DF024093DE028193B3
:102F8000919302C0E0E0F0E0CF01DF91CF9108958E
:102F9000CF93DF93009709F487C0FC013297138227
:102FA0001282C091E002D091E102209781F4208149
:102FB0003181280F391F8091DE029091DF02821744
:102FC000930779F5F093DF02E093DE026DC0DE0136
:102FD00020E030E0AE17BF0750F412964D915C919F
:102FE00013979D014115510509F1DA01F3CFB38320
:102FF000A28340815181840F951F8A179B0771F42A
:103000008D919C911197840F951F029691838083D7
:1030100012968D919C91139793838283211531058C
:1030200029F4F093E102E093E0023EC0D901139647
:10303000FC93EE9312974D915D91A40FB51FEA1783
:10304000FB0779F480819181840F951F0296D90145
:1030500011969C938E938281938113969C938E9369
:103060001297E0E0F0E08A819B81009719F0FE0161
:10307000EC01F9CFCE01029628813981820F931F8E
:103080002091DE023091DF022817390769F430976A
:1030900029F41092E1021092E00202C0138212821F
:1030A000D093DF02C093DE02DF91CF9108958F921B
:1030B0009F92AF92BF92CF92DF92EF92FF92CF9307
:1030C000DF93EC01688179818A819B8161157105AB
:1030D0008105910521F464E279ED8BE597E02DE11E
:1030E00033EF41E050E00E94DB1649015A019B0199
:1030F000AC01A7EAB1E40E94D11B6B017C01ACEEEC
:10310000B4EFA50194010E94DF1BC60ED71EE81E76
:10311000F91EF7FE06C081E0C81AD108E10880E870
:10312000F80AC882D982EA82FB82C6019F77DF91C2
:10313000CF91FF90EF90DF90CF90BF90AF909F9096
:103140008F9008950E945718089586E091E00E949C
:1031500057180895A0E0B0E080930601909307010E
:10316000A0930801B093090108950F931F93CF9383
:10317000DF93EC018B01009731F46115710519F4AF
:1031800080E090E038C06EE070E081E090E00E9466
:10319000081BFC010097A1F380E88383011511054A
:1031A00071F01387028781E883838091E202909116
:1031B000E302892B21F4F093E302E093E2022097EB
:1031C000C9F0D187C0878381826083838091E402C4
:1031D0009091E502892B71F4F093E502E093E4020B
:1031E0008091E6029091E702892B21F4F093E702A7
:1031F000E093E602CF01DF91CF911F910F910895E7
:10320000A0E0B0E0E6E0F9E10C94F41BFE01359695
:1032100061917191AF018091E4029091E5020E9469
:103220003619E2E00C94101CAEE0B0E0EAE1F9E1FE
:103230000C94F21B0D891E8986E08C831A83098306
:103240008FEF9FE79E838D83AE01475E5F4F6F894F
:10325000788DCE0101960E943619EF81F885E00F36
:10326000F11F10822E96E4E00C940E1CACE0B0E04E
:10327000ECE3F9E10C94E41B7C016B018A01FC0195
:1032800017821682838181FFBDC1CE0101964C0158
:10329000F7019381F60193FD859193FF81916F0171
:1032A000882309F4ABC1853239F493FD859193FFEE
:1032B00081916F01853229F4B70190E00E94411B92
:1032C000E7CF512C312C20E02032A0F48B3269F072
:1032D00030F4803259F0833269F420612CC08D3291
:1032E00039F0803339F4216026C02260246023C085
:1032F000286021C027FD27C030ED380F3A3078F420
:1033000026FF06C0FAE05F9E300D1124532E13C035
:103310008AE0389E300D1124332E20620CC08E328C
:1033200021F426FD6BC1206406C08C3611F42068A0
:1033300002C0883641F4F60193FD859193FF819197
:103340006F018111C1CF982F9F7D9554933028F440
:103350000C5F1F4FFFE3F9830DC0833631F08337D5
:1033600071F0833509F05BC022C0F8018081898348
:103370000E5F1F4F44244394512C540115C0380153
:10338000F2E06F0E711CF801A080B18026FF03C02F
:10339000652D70E002C06FEF7FEFC5012C870E94A2
:1033A000361B2C0183012C852F77222E17C0380164
:1033B000F2E06F0E711CF801A080B18026FF03C0FF
:1033C000652D70E002C06FEF7FEFC5012C870E9472
:1033D000241B2C012C852068222E830123FC1BC07A
:1033E000832D90E048165906B0F4B70180E290E0D2
:1033F0000E94411B3A94F4CFF50127FC859127FEEA
:1034000081915F01B70190E00E94411B31103A9415
:10341000F1E04F1A51084114510471F7E5C08436A8
:1034200011F0893639F5F80127FF07C060817181F5
:10343000828193810C5F1F4F08C060817181882752
:1034400077FD8095982F0E5F1F4F2F76B22E97FF36
:1034500009C090958095709561957F4F8F4F9F4FD4
:103460002068B22E2AE030E0A4010E94731BA82E2F
:10347000A81844C0853729F42F7EB22E2AE030E008
:1034800025C0F22FF97FBF2E8F36C1F018F4883592
:1034900079F0B4C0803719F0883721F0AFC02F2FF2
:1034A0002061B22EB4FE0DC08B2D8460B82E09C0F1
:1034B00024FF0AC09F2F9660B92E06C028E030E096
:1034C00005C020E130E002C020E132E0F801B7FEA3
:1034D00007C060817181828193810C5F1F4F06C09C
:1034E0006081718180E090E00E5F1F4FA4010E9417
:1034F000731BA82EA818FB2DFF77BF2EB6FE0BC09E
:103500002B2D2E7FA51450F4B4FE0AC0B2FC08C0C7
:103510002B2D2E7E05C07A2C2B2D03C07A2C01C0BA
:10352000752C24FF0DC0FE01EA0DF11D8081803352
:1035300011F4297E09C022FF06C07394739404C05D
:10354000822F867809F0739423FD13C020FF06C0F4
:103550005A2C731418F4530C5718732C731468F402
:10356000B70180E290E02C870E94411B73942C8568
:10357000F5CF731410F4371801C0312C24FF12C09A
:10358000B70180E390E02C870E94411B2C8522FF2D
:1035900017C021FF03C088E590E002C088E790E0F3
:1035A000B7010CC0822F867859F021FD02C080E25D
:1035B00001C08BE227FD8DE2B70190E00E94411B24
:1035C000A51438F4B70180E390E00E94411B5A949F
:1035D000F7CFAA94F401EA0DF11D8081B70190E0C4
:1035E0000E94411BA110F5CF332009F451CEB70141
:1035F00080E290E00E94411B3A94F6CFF701868169
:10360000978102C08FEF9FEF2C96E2E10C94001C93
:103610000F931F93CF93DF93869F8001879F100D99
:10362000969F100D1124C8010E943017EC010097DD
:1036300029F0A80160E070E00E942F1BCE01DF910D
:10364000CF911F910F910895FC010590615070403A
:103650000110D8F7809590958E0F9F1F0895DC017B
:1036600001C06D9341505040E0F70895FC01615056
:10367000704001900110D8F7809590958E0F9F1F94
:1036800008950F931F93CF93DF93182F092FEB010A
:103690008B8181FD03C08FEF9FEF20C082FF10C0A0
:1036A0004E815F812C813D81421753077CF4E88174
:1036B000F9819F012F5F3F4F39832883108306C014
:1036C000E885F985812F0995892B29F72E813F817E
:1036D0002F5F3F4F3F832E83812F902FDF91CF911C
:1036E0001F910F910895FA01AA27283051F1203136
:1036F00081F1E8946F936E7F6E5F7F4F8F4F9F4F86
:10370000AF4FB1E03ED0B4E03CD0670F781F891FC7
:103710009A1FA11D680F791F8A1F911DA11D6A0F95
:10372000711D811D911DA11D20D009F468943F9148
:103730002AE0269F11243019305D3193DEF6CF0147
:103740000895462F4770405D4193B3E00FD0C9F70D
:10375000F6CF462F4F70405D4A3318F0495D31FD7A
:103760004052419302D0A9F7EACFB4E0A6959795CD
:10377000879577956795BA95C9F7009761057105A3
:1037800008959B01AC010A2E0694579547953795ED
:103790002795BA95C9F7620F731F841F951FA01D47
:1037A00008950E941B1CA59F900DB49F900DA49F8F
:1037B000800D911D11240895B7FF0C94D11B0E9418
:1037C000D11B821B930B08952F923F924F925F92D1
:1037D0006F927F928F929F92AF92BF92CF92DF9221
:1037E000EF92FF920F931F93CF93DF93CDB7DEB786
:1037F000CA1BDB0B0FB6F894DEBF0FBECDBF09941A
:103800002A88398848885F846E847D848C849B8470
:10381000AA84B984C884DF80EE80FD800C811B817E
:10382000AA81B981CE0FD11D0FB6F894DEBF0FBEAD
:10383000CDBFED010895A29FB001B39FC001A39F2A
:10384000700D811D1124911DB29F700D811D1124D9
:08385000911D0895F894FFCFCB
:103858000000E8022000010000000000FE42000015
:10386800FE42060126014A015D0188018801B8016E
:10387800B801B801B80188015D015D015D015D0114
:103888004A014A0126012601260126010601C8002F
:10389800C800C800C80090019001C800C800C8004E
:1038A800C8002003C800C800C800C80090019001E3
:1038B800C800C800C800C800200325692025632562
:1038C8006325632025690053636F72653A20256973
:1038D800004E616D653A202563256325630020202D
:1038E8002020202020202020005E00506C61796973
:1038F8006E672070696E67706F6E670053746174CD
:1039080065202569200A0D0053636F72653A2025EA
:1039180064004D6F7665204A6F79737469636B0034
:1039280054696D65206C6566743A20002569202508
:1039380069202569202569004D43503235313520ED
:103948006973204E4F5420696E20636F6E666967F5
:1039580075726174696F6E206D6F6465206166743D
:103968006572207265736574210A0D00506C617967
:10397800657220526967687420776F6E2100506CF9
:1039880061796572204C65667420776F6E21003E00
:10399800004D61696E206D656E75004869676873D2
:1039A800636F726500536E616B650050696E6720C6
:1039B800506F6E6700506C61792047616D650044F7
:1039C800726177004E6F726D616C20436F6E747216
:1039D8006F6C0057656220436F6E74726F6C005392
:1039E800656C6620436F6E74726F6C0053657474F7
:1039F800696E67730043616C696272617465204A1D
:103A08006F7900436C656172206869676873636FDA
:103A180072650053706F74696679004C6973610050
:0C3A2800706C61795F6D6172696F000065
:00000001FF
