:100000000C9438000C9455000C9455000C94550039
:100010000C9455000C9455000C9455000C9455000C
:100020000C9455000C9455000C9455000C945500FC
:100030000C9455000C9455000C94B6010C9455008A
:100040000C9455000C9455000C9455000C945500DC
:100050000C9455000C9455000C9455000C945500CC
:100060000C9455000C9455000C9455000C945500BC
:1000700011241FBECFEFD4E0DEBFCDBF11E0A0E062
:10008000B1E0ECEEFEE002C005900D92A639B1079A
:10009000D9F721E0A6E9B1E001C01D92A03AB2076C
:1000A000E1F70E9420020C9474070C9400000E9457
:1000B000E5000E94CB0040E060EE8FE00E94360138
:1000C0004FEF63E08BE20E9436018EE00E94D30086
:1000D000807E59F086E091E09F938F930E945604B2
:1000E0000F900F9081E090E0089580E090E00895F7
:1000F0000F931F93CF938C01FC01608182E30E94D8
:100100000101F801618185E30E940101F80181810B
:10011000882371F0C0E0F801EC0FF11D628186E3E5
:100120008C0F0E940101CF5FF8018181C81798F3FD
:1001300080E00E941501CF911F910F9108950F93B8
:100140001F93CF938C018CE20E94D30080FF1DC0CF
:1001500085E60E94D300F8018183882371F0C0E016
:1001600086E68C0F0E94D300F801EC0FF11D82830C
:10017000CF5FF8018181C81798F340E061E08CE21D
:100180000E94360180E090E002C081E090E0CF91D3
:100190001F910F9108950E94F10180EC0E94E301EC
:1001A0000E94EF010895CF93C82F0E94F10183E0D0
:1001B0000E94E8018C2F0E94E8010E94EB01C82FE9
:1001C0000E94EF018C2FCF91089580E895E20E9464
:1001D000FD010E94DE010E94CB008EE00E94D30050
:1001E000807E803859F08FE291E09F938F930E9438
:1001F00056040F900F9081E090E0089580E090E029
:100200000895CF93DF93D82FC62F0E94F10182E08B
:100210000E94E8018D2F0E94E8018C2F0E94E801C6
:100220000E94EF01DF91CF910895CF93C82F0E94D4
:10023000F1018C2F8370813051F028F0823059F019
:10024000833069F00FC081E80E94E8010BC082E8AA
:100250000E94E80107C084E80E94E80103C087E823
:100260000E94E8010E94EF01CF9108951F93CF9360
:10027000DF93182FD62FC42F0E94F10185E00E9432
:10028000E801812F0E94E8018D2F0E94E8018C2F48
:100290000E94E8010E94EF01DF91CF911F91089524
:1002A000E0E0F0E18EEA808381EA80838AED80835A
:1002B00082E1808388EC808388EA80838FE3808377
:1002C00085ED808380E8808381E8808380E580837A
:1002D00089ED808381E2808380E2808382E0808375
:1002E0008BED808380E380838DEA8083108284EAB3
:1002F000808386EA80838FEA80830895AF92BF92DD
:10030000CF92DF92EF92FF920F931F93CF93DF93E1
:100310007C01C0E0D0E0C12CD12CA12C6894BB247E
:10032000B4F800E012E1CE019E012F773327232B92
:1003300039F420EB2C0DF5012083FFEFCF1ADF0AF3
:100340008E0D9F1D0E94F301F80180832196C11537
:10035000F4E0DF0741F7DF91CF911F910F91FF90FC
:10036000EF90DF90CF90BF90AF9008951F920F92C3
:100370000FB60F9211242F933F934F935F936F9378
:100380007F938F939F93AF93BF93EF93FF9380E0FF
:1003900090E00E947E011DBC1CBCFF91EF91BF91BB
:1003A000AF919F918F917F916F915F914F913F910D
:1003B0002F910F900FBE0F901F90189580EB87BB69
:1003C00081E58DB908958FB9779BFECF8FB10895E0
:1003D0000E94E30108958CEC0E94E3010895C49A01
:1003E0000895C4980895FC01F85E808108955D9B8E
:1003F000FECF8CB980E090E008959C0140E050E091
:1004000060E070EB84E090E00E949D022150310991
:1004100030BD29B98AB188618AB980B5866880BD46
:1004200060E070E087EF91E00E940B0480E090E0D4
:10043000089580B7806280BF85B7806885BF0895C2
:10044000CF93DF93CDB7DEB764970FB6F894DEBFD6
:100450000FBECDBF80E895E20E94FD010E94190207
:100460000E9450010E9457000F2EF1E65F2EF02DE2
:100470000F2EF3E68F2EF1E09F2EF02D22242394F1
:100480000F2EF5E63F2EF02D0F2EF9E64F2EF02D14
:100490005E012DE0A20EB11C0F2EFCE6CF2EF1E086
:1004A000DF2EF02DCE0101967C018E010D5F1F4FD6
:1004B0000F2EF7E86F2EF1E07F2EF02D53949F92D0
:1004C0008F920E9456042B865D863E864F8691E26F
:1004D000988BE4E0EC87CE010B960E947800BF92E7
:1004E000AF92DF92CF920E945604F7012AE0119258
:1004F0002A95E9F7C7010E949F000F900F900F9077
:100500000F900F900F90892B21F08BE791E00E94C4
:100510006C041F930F937F926F920E9456048FEF8B
:100520009FE7E6E181509040E040E1F700C000C065
:100530000F900F900F900F90C1CF052E97FB1EF4D8
:1005400000940E94B40257FD07D00E94BC0207FC31
:1005500003D04EF40C94B4025095409530952195FB
:100560003F4F4F4F5F4F08959095809570956195DF
:100570007F4F8F4F9F4F0895A1E21A2EAA1BBB1BDE
:10058000FD010DC0AA1FBB1FEE1FFF1FA217B3075F
:10059000E407F50720F0A21BB30BE40BF50B661F75
:1005A000771F881F991F1A9469F760957095809539
:1005B00090959B01AC01BD01CF010895CF93DF93CE
:1005C0008230910510F482E090E0E0919801F09182
:1005D000990120E030E0C0E0D0E0309711F1408197
:1005E000518148175907C0F04817590761F48281B3
:1005F0009381209719F09B838A832BC09093990154
:100600008093980126C02115310519F04217530730
:1006100018F49A01BE01DF01EF010280F381E02DA1
:10062000DCCF2115310509F1281B390B24303105A8
:1006300090F412968D919C9113976115710521F09C
:10064000FB019383828304C0909399018093980166
:10065000FD01329644C0FD01E20FF31F8193919397
:10066000225031092D933C933AC02091960130914C
:100670009701232B41F42091020130910301309323
:1006800097012093960120910001309101012115DD
:10069000310541F42DB73EB7409104015091050159
:1006A000241B350BE0919601F0919701E217F307B7
:1006B000A0F42E1B3F0B2817390778F0AC014E5FD2
:1006C0005F4F2417350748F04E0F5F1F5093970177
:1006D000409396018193919302C0E0E0F0E0CF0156
:1006E000DF91CF9108950F931F93CF93DF930097DE
:1006F00009F48CC0FC013297138212820091980198
:10070000109199010115110581F420813181820F29
:10071000931F20919601309197012817390779F599
:10072000F0939701E093960171C0D80140E050E04A
:10073000AE17BF0750F412962D913C911397AD015F
:100740002115310509F1D901F3CF9D01DA01338378
:10075000228360817181860F971F8217930769F446
:10076000EC0128813981260F371F2E5F3F4F3183DF
:1007700020838A819B8193838283452B29F4F09384
:100780009901E093980142C01396FC93EE9312975F
:10079000ED01499159919E01240F351FE217F3078E
:1007A00071F480819181840F951F029611969C931C
:1007B0008E938281938113969C938E931297E0E09F
:1007C000F0E0D80112968D919C911397009719F043
:1007D000F8018C01F6CF8D919C9198012E5F3F4FCF
:1007E000820F931F209196013091970128173907A6
:1007F00069F4309729F4109299011092980102C07F
:10080000138212821093970100939601DF91CF918A
:100810001F910F9108950F931F93CF93DF9300972C
:1008200031F46115710519F480E090E03AC08B0154
:10083000EC016EE070E081E090E00E946E06FC0149
:10084000892B91F380E883830115110571F01387DB
:10085000028781E8838380919A0190919B01892B83
:1008600021F4F0939B01E0939A012097C9F0D1877E
:10087000C08783818260838380919C0190919D01D8
:10088000892B71F4F0939D01E0939C0180919E016E
:1008900090919F01892B21F4F0939F01E0939E0199
:1008A000CF01DF91CF911F910F910895A0E0B0E0AB
:1008B000ECE5F4E00C944D07AE014B5F5F4FFA019D
:1008C00061917191AF0180919C0190919D010E9475
:1008D0009C04E2E00C9469070F931F93CF93DF937E
:1008E000E0919C01F0919D01238121FF1BC08C01AF
:1008F000D0E0C0E0F80181918F0160919C0170917E
:100900009D01DB011896ED91FC911997882331F038
:100910000995892B79F3DFEFCFEFECCF8AE00995CA
:10092000892B19F08FEF9FEF02C08D2F9C2FDF9145
:10093000CF911F910F910895ACE0B0E0E2EAF4E0AE
:100940000C943D077C016B018A01FC011782168221
:10095000838181FFBDC1CE0101964C01F7019381D6
:10096000F60193FD859193FF81916F01882309F42E
:10097000ABC1853239F493FD859193FF81916F016D
:10098000853229F4B70190E00E94A706E7CF512CE9
:10099000312C20E02032A0F48B3269F030F4803228
:1009A00059F0833269F420612CC08D3239F08033E4
:1009B00039F4216026C02260246023C0286021C051
:1009C00027FD27C030ED380F3A3078F426FF06C0F7
:1009D000FAE05F9E300D1124532E13C08AE0389E3A
:1009E000300D1124332E20620CC08E3221F426FDEE
:1009F0006BC1206406C08C3611F4206802C08836B2
:100A000041F4F60193FD859193FF81916F0181116E
:100A1000C1CF982F9F7D9554933028F40C5F1F4FC2
:100A2000FFE3F9830DC0833631F0833771F08335EE
:100A300009F05BC022C0F801808189830E5F1F4FDF
:100A400044244394512C540115C03801F2E06F0E38
:100A5000711CF801A080B18026FF03C0652D70E0F5
:100A600002C06FEF7FEFC5012C870E949C062C010E
:100A700083012C852F77222E17C03801F2E06F0EEC
:100A8000711CF801A080B18026FF03C0652D70E0C5
:100A900002C06FEF7FEFC5012C870E948A062C01F0
:100AA0002C852068222E830123FC1BC0832D90E01F
:100AB00048165906B0F4B70180E290E00E94A706FC
:100AC0003A94F4CFF50127FC859127FE81915F01CF
:100AD000B70190E00E94A70631103A94F1E04F1A56
:100AE00051084114510471F7E5C0843611F089367C
:100AF00039F5F80127FF07C06081718182819381F8
:100B00000C5F1F4F08C060817181072E000C880B9D
:100B1000990B0E5F1F4F2F76722E97FF09C090958D
:100B20008095709561957F4F8F4F9F4F2068722EF3
:100B30002AE030E0A4010E94DF06A82EA81844C0D5
:100B4000853729F42F7EB22E2AE030E025C0F22F1F
:100B5000F97FBF2E8F36C1F018F4883579F0B4C014
:100B6000803719F0883721F0AFC02F2F2061B22EC7
:100B7000B4FE0DC08B2D8460B82E09C024FF0AC0BE
:100B80009F2F9660B92E06C028E030E005C020E116
:100B900030E002C020E132E0F801B7FE07C060811A
:100BA0007181828193810C5F1F4F06C060817181CA
:100BB00080E090E00E5F1F4FA4010E94DF06A82E88
:100BC000A818FB2DFF777F2E76FE0BC0372D3E7FBA
:100BD000A51450F474FE0AC072FC08C0372D3E7E86
:100BE00005C0BA2C372D03C0BA2C01C0B52C34FF78
:100BF0000DC0FE01EA0DF11D8081803311F4397EB4
:100C000009C032FF06C0B394B39404C0832F867822
:100C100009F0B39433FD13C030FF06C05A2CB3144F
:100C200018F4530C5B18B32CB31468F4B70180E2CA
:100C300090E03C870E94A706B3943C85F5CFB3149F
:100C400010F43B1801C0312C34FF12C0B70180E30F
:100C500090E03C870E94A7063C8532FF17C031FD1B
:100C600003C088E790E002C088E590E0B7010CC0BF
:100C7000832F867859F031FF02C08BE201C080E2F9
:100C800037FD8DE2B70190E00E94A706A51438F465
:100C9000B70180E390E00E94A7065A94F7CFAA9488
:100CA000F401EA0DF11D8081B70190E00E94A706D2
:100CB000A110F5CF332009F451CEB70180E290E0C6
:100CC0000E94A7063A94F6CFF7018681978102C069
:100CD0008FEF9FEF2C96E2E10C9459070F931F932F
:100CE000CF93DF93869F8001879F100D969F100DF5
:100CF0001124C8010E94DE02EC01009729F0A8012E
:100D000060E070E00E949506CE01DF91CF911F91C7
:100D10000F910895FC010590615070400110D8F7C3
:100D2000809590958E0F9F1F0895DC0101C06D93F3
:100D300041505040E0F70895FC016150704001902F
:100D40000110D8F7809590958E0F9F1F08950F93EF
:100D50001F93CF93DF93FB01238121FD03C08FEF0E
:100D60009FEF28C022FF16C046815781248135811C
:100D70004217530744F4A081B1819D012F5F3F4F7B
:100D8000318320838C93268137812F5F3F4F3783B8
:100D9000268310C0EB01092F182F0084F185E02D68
:100DA0000995892BE1F68E819F8101969F838E8321
:100DB000812F902FDF91CF911F910F910895FA010C
:100DC000AA27283051F1203181F1E8946F936E7F8A
:100DD0006E5F7F4F8F4F9F4FAF4FB1E03ED0B4E07B
:100DE0003CD0670F781F891F9A1FA11D680F791FBC
:100DF0008A1F911DA11D6A0F711D811D911DA11DCD
:100E000020D009F468943F912AE0269F11243019DC
:100E1000305D3193DEF6CF010895462F4770405D77
:100E20004193B3E00FD0C9F7F6CF462F4F70405D26
:100E30004A3318F0495D31FD4052419302D0A9F781
:100E4000EACFB4E0A6959795879577956795BA957B
:100E5000C9F700976105710508959B01AC010A2E41
:100E600006945795479537952795BA95C9F7620F18
:100E7000731F841F951FA01D08952F923F924F92BC
:100E80005F926F927F928F929F92AF92BF92CF921A
:100E9000DF92EF92FF920F931F93CF93DF93CDB723
:100EA000DEB7CA1BDB0B0FB6F894DEBF0FBECDBF9B
:100EB00009942A88398848885F846E847D848C846C
:100EC0009B84AA84B984C884DF80EE80FD800C8175
:100ED0001B81AA81B981CE0FD11D0FB6F894DEBF58
:0C0EE0000FBECDBFED010895F894FFCFC8
:100EEC000000A001200053797374656D206E6F743F
:100EFC0020696E206E6F726D616C206D6F64652E53
:100F0C00204162616E646F6E20736869702E004DB3
:100F1C00435032353135206973204E4F5420696E61
:100F2C0020636F6E66696775726174696F6E206D90
:100F3C006F646520616674657220726573657421D7
:100F4C000A0D0048656C6C6F200A0D006D6573739B
:100F5C006167653A202573200A0D006572723A208C
:100F6C006E6F206D736700616E737765723A202522
:060F7C0073200A0D0000C5
:00000001FF
